{"abi":[{"type":"constructor","inputs":[{"name":"_campaignManager","type":"address","internalType":"address"},{"name":"_campaignId","type":"uint256","internalType":"uint256"},{"name":"_fan","type":"address","internalType":"address"},{"name":"_points","type":"uint256","internalType":"uint256"}],"stateMutability":"nonpayable"},{"type":"function","name":"INTERVAL","inputs":[],"outputs":[{"name":"","type":"uint256","internalType":"uint256"}],"stateMutability":"view"},{"type":"function","name":"campaignId","inputs":[],"outputs":[{"name":"","type":"uint256","internalType":"uint256"}],"stateMutability":"view"},{"type":"function","name":"campaignManager","inputs":[],"outputs":[{"name":"","type":"address","internalType":"address"}],"stateMutability":"view"},{"type":"function","name":"checkUpkeep","inputs":[{"name":"","type":"bytes","internalType":"bytes"}],"outputs":[{"name":"upkeepNeeded","type":"bool","internalType":"bool"},{"name":"performData","type":"bytes","internalType":"bytes"}],"stateMutability":"view"},{"type":"function","name":"fan","inputs":[],"outputs":[{"name":"","type":"address","internalType":"address"}],"stateMutability":"view"},{"type":"function","name":"lastAwarded","inputs":[],"outputs":[{"name":"","type":"uint256","internalType":"uint256"}],"stateMutability":"view"},{"type":"function","name":"performUpkeep","inputs":[{"name":"performData","type":"bytes","internalType":"bytes"}],"outputs":[],"stateMutability":"nonpayable"},{"type":"function","name":"points","inputs":[],"outputs":[{"name":"","type":"uint256","internalType":"uint256"}],"stateMutability":"view"}],"bytecode":{"object":"0x60a060405234801561000f575f5ffd5b50604051610aa0380380610aa08339818101604052810190610031919061014d565b8373ffffffffffffffffffffffffffffffffffffffff1660808173ffffffffffffffffffffffffffffffffffffffff1681525050826001819055508160025f6101000a81548173ffffffffffffffffffffffffffffffffffffffff021916908373ffffffffffffffffffffffffffffffffffffffff16021790555080600381905550505050506101b1565b5f5ffd5b5f73ffffffffffffffffffffffffffffffffffffffff82169050919050565b5f6100e9826100c0565b9050919050565b6100f9816100df565b8114610103575f5ffd5b50565b5f81519050610114816100f0565b92915050565b5f819050919050565b61012c8161011a565b8114610136575f5ffd5b50565b5f8151905061014781610123565b92915050565b5f5f5f5f60808587031215610165576101646100bc565b5b5f61017287828801610106565b945050602061018387828801610139565b935050604061019487828801610106565b92505060606101a587828801610139565b91505092959194509250565b6080516108d06101d05f395f8181610208015261040901526108d05ff3fe608060405234801561000f575f5ffd5b5060043610610086575f3560e01c806389facb201161005957806389facb20146101135780638ed5b0fc14610131578063f91b9b741461014f578063fb5e76e61461016d57610086565b80630958b0b11461008a5780631be6dd64146100a85780634585e33b146100c65780636e04ff0d146100e2575b5f5ffd5b61009261018b565b60405161009f9190610443565b60405180910390f35b6100b0610190565b6040516100bd9190610443565b60405180910390f35b6100e060048036038101906100db91906104c5565b610196565b005b6100fc60048036038101906100f791906104c5565b610366565b60405161010a92919061059a565b60405180910390f35b61011b6103d6565b6040516101289190610443565b60405180910390f35b6101396103dc565b6040516101469190610443565b60405180910390f35b6101576103e2565b6040516101649190610607565b60405180910390f35b610175610407565b6040516101829190610607565b60405180910390f35b5f5481565b60035481565b5f5f5f84848101906101a89190610685565b92509250925061012c5f54426101be9190610702565b10156101ff576040517f08c379a00000000000000000000000000000000000000000000000000000000081526004016101f69061078f565b60405180910390fd5b425f819055505f7f000000000000000000000000000000000000000000000000000000000000000073ffffffffffffffffffffffffffffffffffffffff16848484604051602401610252939291906107ad565b6040516020818303038152906040527fb1dd9968000000000000000000000000000000000000000000000000000000007bffffffffffffffffffffffffffffffffffffffffffffffffffffffff19166020820180517bffffffffffffffffffffffffffffffffffffffffffffffffffffffff83818316178352505050506040516102dc919061081c565b5f604051808303815f865af19150503d805f8114610315576040519150601f19603f3d011682016040523d82523d5f602084013e61031a565b606091505b505090508061035e576040517f08c379a00000000000000000000000000000000000000000000000000000000081526004016103559061087c565b60405180910390fd5b505050505050565b5f606061012c5f54426103799190610702565b1015915081156103cf5760015460025f9054906101000a900473ffffffffffffffffffffffffffffffffffffffff166003546040516020016103bd939291906107ad565b60405160208183030381529060405290505b9250929050565b61012c81565b60015481565b60025f9054906101000a900473ffffffffffffffffffffffffffffffffffffffff1681565b7f000000000000000000000000000000000000000000000000000000000000000081565b5f819050919050565b61043d8161042b565b82525050565b5f6020820190506104565f830184610434565b92915050565b5f5ffd5b5f5ffd5b5f5ffd5b5f5ffd5b5f5ffd5b5f5f83601f84011261048557610484610464565b5b8235905067ffffffffffffffff8111156104a2576104a1610468565b5b6020830191508360018202830111156104be576104bd61046c565b5b9250929050565b5f5f602083850312156104db576104da61045c565b5b5f83013567ffffffffffffffff8111156104f8576104f7610460565b5b61050485828601610470565b92509250509250929050565b5f8115159050919050565b61052481610510565b82525050565b5f81519050919050565b5f82825260208201905092915050565b8281835e5f83830152505050565b5f601f19601f8301169050919050565b5f61056c8261052a565b6105768185610534565b9350610586818560208601610544565b61058f81610552565b840191505092915050565b5f6040820190506105ad5f83018561051b565b81810360208301526105bf8184610562565b90509392505050565b5f73ffffffffffffffffffffffffffffffffffffffff82169050919050565b5f6105f1826105c8565b9050919050565b610601816105e7565b82525050565b5f60208201905061061a5f8301846105f8565b92915050565b6106298161042b565b8114610633575f5ffd5b50565b5f8135905061064481610620565b92915050565b5f610654826105c8565b9050919050565b6106648161064a565b811461066e575f5ffd5b50565b5f8135905061067f8161065b565b92915050565b5f5f5f6060848603121561069c5761069b61045c565b5b5f6106a986828701610636565b93505060206106ba86828701610671565b92505060406106cb86828701610636565b9150509250925092565b7f4e487b71000000000000000000000000000000000000000000000000000000005f52601160045260245ffd5b5f61070c8261042b565b91506107178361042b565b925082820390508181111561072f5761072e6106d5565b5b92915050565b5f82825260208201905092915050565b7f546f6f20736f6f6e0000000000000000000000000000000000000000000000005f82015250565b5f610779600883610735565b915061078482610745565b602082019050919050565b5f6020820190508181035f8301526107a68161076d565b9050919050565b5f6060820190506107c05f830186610434565b6107cd60208301856105f8565b6107da6040830184610434565b949350505050565b5f81905092915050565b5f6107f68261052a565b61080081856107e2565b9350610810818560208601610544565b80840191505092915050565b5f61082782846107ec565b915081905092915050565b7f6177617264506f696e7473206661696c656400000000000000000000000000005f82015250565b5f610866601283610735565b915061087182610832565b602082019050919050565b5f6020820190508181035f8301526108938161085a565b905091905056fea2646970667358221220d8bc257d8f761eea1db20e42682624d591b6bf571e912d1f9eee0d943e29380064736f6c634300081e0033","linkReferences":{}},"methodIdentifiers":{"INTERVAL()":"89facb20","campaignId()":"8ed5b0fc","campaignManager()":"fb5e76e6","checkUpkeep(bytes)":"6e04ff0d","fan()":"f91b9b74","lastAwarded()":"0958b0b1","performUpkeep(bytes)":"4585e33b","points()":"1be6dd64"},"id":30}