{"abi":[{"type":"constructor","inputs":[{"name":"_userRegistry","type":"address","internalType":"address"}],"stateMutability":"nonpayable"},{"type":"function","name":"checkAccess","inputs":[{"name":"_creator","type":"address","internalType":"address"},{"name":"_user","type":"address","internalType":"address"},{"name":"_tierId","type":"uint256","internalType":"uint256"}],"outputs":[{"name":"","type":"bool","internalType":"bool"}],"stateMutability":"view"},{"type":"function","name":"createAccessTier","inputs":[{"name":"_name","type":"string","internalType":"string"},{"name":"_coinThreshold","type":"uint256","internalType":"uint256"},{"name":"_pointThreshold","type":"uint256","internalType":"uint256"},{"name":"_contentURI","type":"string","internalType":"string"}],"outputs":[{"name":"","type":"uint256","internalType":"uint256"}],"stateMutability":"nonpayable"},{"type":"function","name":"creatorAccessTiers","inputs":[{"name":"","type":"address","internalType":"address"},{"name":"","type":"uint256","internalType":"uint256"}],"outputs":[{"name":"name","type":"string","internalType":"string"},{"name":"coinThreshold","type":"uint256","internalType":"uint256"},{"name":"pointThreshold","type":"uint256","internalType":"uint256"},{"name":"isActive","type":"bool","internalType":"bool"},{"name":"contentURI","type":"string","internalType":"string"}],"stateMutability":"view"},{"type":"function","name":"getCreatorTiers","inputs":[{"name":"_creator","type":"address","internalType":"address"}],"outputs":[{"name":"","type":"tuple[]","internalType":"struct AccessControl.AccessTier[]","components":[{"name":"name","type":"string","internalType":"string"},{"name":"coinThreshold","type":"uint256","internalType":"uint256"},{"name":"pointThreshold","type":"uint256","internalType":"uint256"},{"name":"isActive","type":"bool","internalType":"bool"},{"name":"contentURI","type":"string","internalType":"string"}]}],"stateMutability":"view"},{"type":"function","name":"hasAccess","inputs":[{"name":"","type":"address","internalType":"address"},{"name":"","type":"uint256","internalType":"uint256"}],"outputs":[{"name":"","type":"bool","internalType":"bool"}],"stateMutability":"view"},{"type":"function","name":"owner","inputs":[],"outputs":[{"name":"","type":"address","internalType":"address"}],"stateMutability":"view"},{"type":"function","name":"renounceOwnership","inputs":[],"outputs":[],"stateMutability":"nonpayable"},{"type":"function","name":"transferOwnership","inputs":[{"name":"newOwner","type":"address","internalType":"address"}],"outputs":[],"stateMutability":"nonpayable"},{"type":"function","name":"updateTierStatus","inputs":[{"name":"_tierId","type":"uint256","internalType":"uint256"},{"name":"_isActive","type":"bool","internalType":"bool"}],"outputs":[],"stateMutability":"nonpayable"},{"type":"function","name":"userRegistry","inputs":[],"outputs":[{"name":"","type":"address","internalType":"contract UserRegistry"}],"stateMutability":"view"},{"type":"event","name":"AccessGranted","inputs":[{"name":"user","type":"address","indexed":true,"internalType":"address"},{"name":"creator","type":"address","indexed":true,"internalType":"address"},{"name":"tierId","type":"uint256","indexed":false,"internalType":"uint256"}],"anonymous":false},{"type":"event","name":"AccessRevoked","inputs":[{"name":"user","type":"address","indexed":true,"internalType":"address"},{"name":"creator","type":"address","indexed":true,"internalType":"address"},{"name":"tierId","type":"uint256","indexed":false,"internalType":"uint256"}],"anonymous":false},{"type":"event","name":"AccessTierCreated","inputs":[{"name":"creator","type":"address","indexed":true,"internalType":"address"},{"name":"tierId","type":"uint256","indexed":false,"internalType":"uint256"},{"name":"name","type":"string","indexed":false,"internalType":"string"},{"name":"coinThreshold","type":"uint256","indexed":false,"internalType":"uint256"}],"anonymous":false},{"type":"event","name":"OwnershipTransferred","inputs":[{"name":"previousOwner","type":"address","indexed":true,"internalType":"address"},{"name":"newOwner","type":"address","indexed":true,"internalType":"address"}],"anonymous":false},{"type":"error","name":"OwnableInvalidOwner","inputs":[{"name":"owner","type":"address","internalType":"address"}]},{"type":"error","name":"OwnableUnauthorizedAccount","inputs":[{"name":"account","type":"address","internalType":"address"}]}],"bytecode":{"object":"0x608060405234801561000f575f5ffd5b50604051611d31380380611d3183398181016040528101906100319190610217565b335f73ffffffffffffffffffffffffffffffffffffffff168173ffffffffffffffffffffffffffffffffffffffff16036100a2575f6040517f1e4fbdf70000000000000000000000000000000000000000000000000000000081526004016100999190610251565b60405180910390fd5b6100b1816100f860201b60201c565b508060015f6101000a81548173ffffffffffffffffffffffffffffffffffffffff021916908373ffffffffffffffffffffffffffffffffffffffff1602179055505061026a565b5f5f5f9054906101000a900473ffffffffffffffffffffffffffffffffffffffff169050815f5f6101000a81548173ffffffffffffffffffffffffffffffffffffffff021916908373ffffffffffffffffffffffffffffffffffffffff1602179055508173ffffffffffffffffffffffffffffffffffffffff168173ffffffffffffffffffffffffffffffffffffffff167f8be0079c531659141344cd1fd0a4f28419497f9722a3daafe3b4186f6b6457e060405160405180910390a35050565b5f5ffd5b5f73ffffffffffffffffffffffffffffffffffffffff82169050919050565b5f6101e6826101bd565b9050919050565b6101f6816101dc565b8114610200575f5ffd5b50565b5f81519050610211816101ed565b92915050565b5f6020828403121561022c5761022b6101b9565b5b5f61023984828501610203565b91505092915050565b61024b816101dc565b82525050565b5f6020820190506102645f830184610242565b92915050565b611aba806102775f395ff3fe608060405234801561000f575f5ffd5b506004361061009c575f3560e01c8063a7934dc011610064578063a7934dc014610146578063c6530e4114610176578063d82c94a1146101a6578063f2fde38b146101c2578063f5d6afd7146101de5761009c565b80630ecd9a6d146100a05780631bbfbb57146100d05780635c7460d614610100578063715018a61461011e5780638da5cb5b14610128575b5f5ffd5b6100ba60048036038101906100b59190610f29565b610212565b6040516100c7919061112b565b60405180910390f35b6100ea60048036038101906100e59190611175565b6103f8565b6040516100f791906111d4565b60405180910390f35b610108610632565b6040516101159190611248565b60405180910390f35b610126610657565b005b61013061066a565b60405161013d9190611270565b60405180910390f35b610160600480360381019061015b91906112ea565b610691565b60405161016d919061139c565b60405180910390f35b610190600480360381019061018b91906113b5565b610993565b60405161019d91906111d4565b60405180910390f35b6101c060048036038101906101bb919061141d565b6109bd565b005b6101dc60048036038101906101d79190610f29565b610b90565b005b6101f860048036038101906101f391906113b5565b610c14565b6040516102099594939291906114a3565b60405180910390f35b606060025f8373ffffffffffffffffffffffffffffffffffffffff1673ffffffffffffffffffffffffffffffffffffffff1681526020019081526020015f20805480602002602001604051908101604052809291908181526020015f905b828210156103ed578382905f5260205f2090600502016040518060a00160405290815f820180546102a09061152f565b80601f01602080910402602001604051908101604052809291908181526020018280546102cc9061152f565b80156103175780601f106102ee57610100808354040283529160200191610317565b820191905f5260205f20905b8154815290600101906020018083116102fa57829003601f168201915b505050505081526020016001820154815260200160028201548152602001600382015f9054906101000a900460ff1615151515815260200160048201805461035e9061152f565b80601f016020809104026020016040519081016040528092919081815260200182805461038a9061152f565b80156103d55780601f106103ac576101008083540402835291602001916103d5565b820191905f5260205f20905b8154815290600101906020018083116103b857829003601f168201915b50505050508152505081526020019060010190610270565b505050509050919050565b5f5f60025f8673ffffffffffffffffffffffffffffffffffffffff1673ffffffffffffffffffffffffffffffffffffffff1681526020019081526020015f2090508080549050831061047f576040517f08c379a0000000000000000000000000000000000000000000000000000000008152600401610476906115a9565b60405180910390fd5b5f818481548110610493576104926115c7565b5b905f5260205f2090600502019050806003015f9054906101000a900460ff166104c0575f9250505061062b565b5f60015f9054906101000a900473ffffffffffffffffffffffffffffffffffffffff1673ffffffffffffffffffffffffffffffffffffffff1663a6fa1542886040518263ffffffff1660e01b815260040161051b9190611270565b602060405180830381865afa158015610536573d5f5f3e3d5ffd5b505050506040513d601f19601f8201168201806040525081019061055a9190611608565b90505f73ffffffffffffffffffffffffffffffffffffffff168173ffffffffffffffffffffffffffffffffffffffff1614610624575f8173ffffffffffffffffffffffffffffffffffffffff166370a08231886040518263ffffffff1660e01b81526004016105c99190611270565b602060405180830381865afa1580156105e4573d5f5f3e3d5ffd5b505050506040513d601f19601f820116820180604052508101906106089190611647565b90508260010154811061062257600194505050505061062b565b505b5f93505050505b9392505050565b60015f9054906101000a900473ffffffffffffffffffffffffffffffffffffffff1681565b61065f610d78565b6106685f610dff565b565b5f5f5f9054906101000a900473ffffffffffffffffffffffffffffffffffffffff16905090565b5f60015f9054906101000a900473ffffffffffffffffffffffffffffffffffffffff1673ffffffffffffffffffffffffffffffffffffffff1663efd46065336040518263ffffffff1660e01b81526004016106ec9190611270565b602060405180830381865afa158015610707573d5f5f3e3d5ffd5b505050506040513d601f19601f8201168201806040525081019061072b9190611686565b61076a576040517f08c379a0000000000000000000000000000000000000000000000000000000008152600401610761906116fb565b60405180910390fd5b5f6040518060a0016040528089898080601f0160208091040260200160405190810160405280939291908181526020018383808284375f81840152601f19601f82011690508083019250505050505050815260200187815260200186815260200160011515815260200185858080601f0160208091040260200160405190810160405280939291908181526020018383808284375f81840152601f19601f82011690508083019250505050505050815250905060025f3373ffffffffffffffffffffffffffffffffffffffff1673ffffffffffffffffffffffffffffffffffffffff1681526020019081526020015f2081908060018154018082558091505060019003905f5260205f2090600502015f909190919091505f820151815f01908161089491906118dd565b5060208201518160010155604082015181600201556060820151816003015f6101000a81548160ff02191690831515021790555060808201518160040190816108dd91906118dd565b5050505f600160025f3373ffffffffffffffffffffffffffffffffffffffff1673ffffffffffffffffffffffffffffffffffffffff1681526020019081526020015f208054905061092e91906119d9565b90503373ffffffffffffffffffffffffffffffffffffffff167f9082c6b0923002dbacab8563879058953593a8041b7b39621cb013b006ad0bd7828b8b8b60405161097c9493929190611a46565b60405180910390a280925050509695505050505050565b6003602052815f5260405f20602052805f5260405f205f915091509054906101000a900460ff1681565b60015f9054906101000a900473ffffffffffffffffffffffffffffffffffffffff1673ffffffffffffffffffffffffffffffffffffffff1663efd46065336040518263ffffffff1660e01b8152600401610a179190611270565b602060405180830381865afa158015610a32573d5f5f3e3d5ffd5b505050506040513d601f19601f82011682018060405250810190610a569190611686565b610a95576040517f08c379a0000000000000000000000000000000000000000000000000000000008152600401610a8c906116fb565b60405180910390fd5b60025f3373ffffffffffffffffffffffffffffffffffffffff1673ffffffffffffffffffffffffffffffffffffffff1681526020019081526020015f20805490508210610b17576040517f08c379a0000000000000000000000000000000000000000000000000000000008152600401610b0e906115a9565b60405180910390fd5b8060025f3373ffffffffffffffffffffffffffffffffffffffff1673ffffffffffffffffffffffffffffffffffffffff1681526020019081526020015f208381548110610b6757610b666115c7565b5b905f5260205f2090600502016003015f6101000a81548160ff0219169083151502179055505050565b610b98610d78565b5f73ffffffffffffffffffffffffffffffffffffffff168173ffffffffffffffffffffffffffffffffffffffff1603610c08575f6040517f1e4fbdf7000000000000000000000000000000000000000000000000000000008152600401610bff9190611270565b60405180910390fd5b610c1181610dff565b50565b6002602052815f5260405f208181548110610c2d575f80fd5b905f5260205f2090600502015f9150915050805f018054610c4d9061152f565b80601f0160208091040260200160405190810160405280929190818152602001828054610c799061152f565b8015610cc45780601f10610c9b57610100808354040283529160200191610cc4565b820191905f5260205f20905b815481529060010190602001808311610ca757829003601f168201915b505050505090806001015490806002015490806003015f9054906101000a900460ff1690806004018054610cf79061152f565b80601f0160208091040260200160405190810160405280929190818152602001828054610d239061152f565b8015610d6e5780601f10610d4557610100808354040283529160200191610d6e565b820191905f5260205f20905b815481529060010190602001808311610d5157829003601f168201915b5050505050905085565b610d80610ec0565b73ffffffffffffffffffffffffffffffffffffffff16610d9e61066a565b73ffffffffffffffffffffffffffffffffffffffff1614610dfd57610dc1610ec0565b6040517f118cdaa7000000000000000000000000000000000000000000000000000000008152600401610df49190611270565b60405180910390fd5b565b5f5f5f9054906101000a900473ffffffffffffffffffffffffffffffffffffffff169050815f5f6101000a81548173ffffffffffffffffffffffffffffffffffffffff021916908373ffffffffffffffffffffffffffffffffffffffff1602179055508173ffffffffffffffffffffffffffffffffffffffff168173ffffffffffffffffffffffffffffffffffffffff167f8be0079c531659141344cd1fd0a4f28419497f9722a3daafe3b4186f6b6457e060405160405180910390a35050565b5f33905090565b5f5ffd5b5f5ffd5b5f73ffffffffffffffffffffffffffffffffffffffff82169050919050565b5f610ef882610ecf565b9050919050565b610f0881610eee565b8114610f12575f5ffd5b50565b5f81359050610f2381610eff565b92915050565b5f60208284031215610f3e57610f3d610ec7565b5b5f610f4b84828501610f15565b91505092915050565b5f81519050919050565b5f82825260208201905092915050565b5f819050602082019050919050565b5f81519050919050565b5f82825260208201905092915050565b8281835e5f83830152505050565b5f601f19601f8301169050919050565b5f610fbf82610f7d565b610fc98185610f87565b9350610fd9818560208601610f97565b610fe281610fa5565b840191505092915050565b5f819050919050565b610fff81610fed565b82525050565b5f8115159050919050565b61101981611005565b82525050565b5f60a083015f8301518482035f8601526110398282610fb5565b915050602083015161104e6020860182610ff6565b5060408301516110616040860182610ff6565b5060608301516110746060860182611010565b506080830151848203608086015261108c8282610fb5565b9150508091505092915050565b5f6110a4838361101f565b905092915050565b5f602082019050919050565b5f6110c282610f54565b6110cc8185610f5e565b9350836020820285016110de85610f6e565b805f5b8581101561111957848403895281516110fa8582611099565b9450611105836110ac565b925060208a019950506001810190506110e1565b50829750879550505050505092915050565b5f6020820190508181035f83015261114381846110b8565b905092915050565b61115481610fed565b811461115e575f5ffd5b50565b5f8135905061116f8161114b565b92915050565b5f5f5f6060848603121561118c5761118b610ec7565b5b5f61119986828701610f15565b93505060206111aa86828701610f15565b92505060406111bb86828701611161565b9150509250925092565b6111ce81611005565b82525050565b5f6020820190506111e75f8301846111c5565b92915050565b5f819050919050565b5f61121061120b61120684610ecf565b6111ed565b610ecf565b9050919050565b5f611221826111f6565b9050919050565b5f61123282611217565b9050919050565b61124281611228565b82525050565b5f60208201905061125b5f830184611239565b92915050565b61126a81610eee565b82525050565b5f6020820190506112835f830184611261565b92915050565b5f5ffd5b5f5ffd5b5f5ffd5b5f5f83601f8401126112aa576112a9611289565b5b8235905067ffffffffffffffff8111156112c7576112c661128d565b5b6020830191508360018202830111156112e3576112e2611291565b5b9250929050565b5f5f5f5f5f5f6080878903121561130457611303610ec7565b5b5f87013567ffffffffffffffff81111561132157611320610ecb565b5b61132d89828a01611295565b9650965050602061134089828a01611161565b945050604061135189828a01611161565b935050606087013567ffffffffffffffff81111561137257611371610ecb565b5b61137e89828a01611295565b92509250509295509295509295565b61139681610fed565b82525050565b5f6020820190506113af5f83018461138d565b92915050565b5f5f604083850312156113cb576113ca610ec7565b5b5f6113d885828601610f15565b92505060206113e985828601611161565b9150509250929050565b6113fc81611005565b8114611406575f5ffd5b50565b5f81359050611417816113f3565b92915050565b5f5f6040838503121561143357611432610ec7565b5b5f61144085828601611161565b925050602061145185828601611409565b9150509250929050565b5f82825260208201905092915050565b5f61147582610f7d565b61147f818561145b565b935061148f818560208601610f97565b61149881610fa5565b840191505092915050565b5f60a0820190508181035f8301526114bb818861146b565b90506114ca602083018761138d565b6114d7604083018661138d565b6114e460608301856111c5565b81810360808301526114f6818461146b565b90509695505050505050565b7f4e487b71000000000000000000000000000000000000000000000000000000005f52602260045260245ffd5b5f600282049050600182168061154657607f821691505b60208210810361155957611558611502565b5b50919050565b7f496e76616c6964207469657200000000000000000000000000000000000000005f82015250565b5f611593600c8361145b565b915061159e8261155f565b602082019050919050565b5f6020820190508181035f8301526115c081611587565b9050919050565b7f4e487b71000000000000000000000000000000000000000000000000000000005f52603260045260245ffd5b5f8151905061160281610eff565b92915050565b5f6020828403121561161d5761161c610ec7565b5b5f61162a848285016115f4565b91505092915050565b5f815190506116418161114b565b92915050565b5f6020828403121561165c5761165b610ec7565b5b5f61166984828501611633565b91505092915050565b5f81519050611680816113f3565b92915050565b5f6020828403121561169b5761169a610ec7565b5b5f6116a884828501611672565b91505092915050565b7f4e6f7420612063726561746f72000000000000000000000000000000000000005f82015250565b5f6116e5600d8361145b565b91506116f0826116b1565b602082019050919050565b5f6020820190508181035f830152611712816116d9565b9050919050565b7f4e487b71000000000000000000000000000000000000000000000000000000005f52604160045260245ffd5b5f819050815f5260205f209050919050565b5f6020601f8301049050919050565b5f82821b905092915050565b5f600883026117a27fffffffffffffffffffffffffffffffffffffffffffffffffffffffffffffffff82611767565b6117ac8683611767565b95508019841693508086168417925050509392505050565b5f6117de6117d96117d484610fed565b6111ed565b610fed565b9050919050565b5f819050919050565b6117f7836117c4565b61180b611803826117e5565b848454611773565b825550505050565b5f5f905090565b611822611813565b61182d8184846117ee565b505050565b5b81811015611850576118455f8261181a565b600181019050611833565b5050565b601f8211156118955761186681611746565b61186f84611758565b8101602085101561187e578190505b61189261188a85611758565b830182611832565b50505b505050565b5f82821c905092915050565b5f6118b55f198460080261189a565b1980831691505092915050565b5f6118cd83836118a6565b9150826002028217905092915050565b6118e682610f7d565b67ffffffffffffffff8111156118ff576118fe611719565b5b611909825461152f565b611914828285611854565b5f60209050601f831160018114611945575f8415611933578287015190505b61193d85826118c2565b8655506119a4565b601f19841661195386611746565b5f5b8281101561197a57848901518255600182019150602085019450602081019050611955565b868310156119975784890151611993601f8916826118a6565b8355505b6001600288020188555050505b505050505050565b7f4e487b71000000000000000000000000000000000000000000000000000000005f52601160045260245ffd5b5f6119e382610fed565b91506119ee83610fed565b9250828203905081811115611a0657611a056119ac565b5b92915050565b828183375f83830152505050565b5f611a25838561145b565b9350611a32838584611a0c565b611a3b83610fa5565b840190509392505050565b5f606082019050611a595f83018761138d565b8181036020830152611a6c818587611a1a565b9050611a7b604083018461138d565b9594505050505056fea26469706673582212206697df81eed9108bbec4825b398d450a23e92c9c3610d1973a41957bb260fa9064736f6c634300081e0033","linkReferences":{}},"methodIdentifiers":{"checkAccess(address,address,uint256)":"1bbfbb57","createAccessTier(string,uint256,uint256,string)":"a7934dc0","creatorAccessTiers(address,uint256)":"f5d6afd7","getCreatorTiers(address)":"0ecd9a6d","hasAccess(address,uint256)":"c6530e41","owner()":"8da5cb5b","renounceOwnership()":"715018a6","transferOwnership(address)":"f2fde38b","updateTierStatus(uint256,bool)":"d82c94a1","userRegistry()":"5c7460d6"},"id":29}