{
  "abi": [
    {
      "type": "constructor",
      "inputs": [
        {
          "name": "_userRegistry",
          "type": "address",
          "internalType": "address"
        }
      ],
      "stateMutability": "nonpayable"
    },
    {
      "type": "function",
      "name": "addMilestone",
      "inputs": [
        {
          "name": "_campaignId",
          "type": "uint256",
          "internalType": "uint256"
        },
        {
          "name": "_threshold",
          "type": "uint256",
          "internalType": "uint256"
        },
        {
          "name": "_rewardAmount",
          "type": "uint256",
          "internalType": "uint256"
        }
      ],
      "outputs": [],
      "stateMutability": "nonpayable"
    },
    {
      "type": "function",
      "name": "awardPoints",
      "inputs": [
        {
          "name": "_campaignId",
          "type": "uint256",
          "internalType": "uint256"
        },
        {
          "name": "_fan",
          "type": "address",
          "internalType": "address"
        },
        {
          "name": "_points",
          "type": "uint256",
          "internalType": "uint256"
        }
      ],
      "outputs": [],
      "stateMutability": "nonpayable"
    },
    {
      "type": "function",
      "name": "campaignCounter",
      "inputs": [],
      "outputs": [
        {
          "name": "",
          "type": "uint256",
          "internalType": "uint256"
        }
      ],
      "stateMutability": "view"
    },
    {
      "type": "function",
      "name": "campaigns",
      "inputs": [
        {
          "name": "",
          "type": "uint256",
          "internalType": "uint256"
        }
      ],
      "outputs": [
        {
          "name": "creator",
          "type": "address",
          "internalType": "address"
        },
        {
          "name": "name",
          "type": "string",
          "internalType": "string"
        },
        {
          "name": "description",
          "type": "string",
          "internalType": "string"
        },
        {
          "name": "startTime",
          "type": "uint256",
          "internalType": "uint256"
        },
        {
          "name": "endTime",
          "type": "uint256",
          "internalType": "uint256"
        },
        {
          "name": "isActive",
          "type": "bool",
          "internalType": "bool"
        },
        {
          "name": "totalRewardPool",
          "type": "uint256",
          "internalType": "uint256"
        },
        {
          "name": "distributedRewards",
          "type": "uint256",
          "internalType": "uint256"
        }
      ],
      "stateMutability": "view"
    },
    {
      "type": "function",
      "name": "claimMilestoneReward",
      "inputs": [
        {
          "name": "_campaignId",
          "type": "uint256",
          "internalType": "uint256"
        },
        {
          "name": "_milestoneIndex",
          "type": "uint256",
          "internalType": "uint256"
        }
      ],
      "outputs": [],
      "stateMutability": "nonpayable"
    },
    {
      "type": "function",
      "name": "createCampaign",
      "inputs": [
        {
          "name": "_name",
          "type": "string",
          "internalType": "string"
        },
        {
          "name": "_description",
          "type": "string",
          "internalType": "string"
        },
        {
          "name": "_startTime",
          "type": "uint256",
          "internalType": "uint256"
        },
        {
          "name": "_endTime",
          "type": "uint256",
          "internalType": "uint256"
        },
        {
          "name": "_totalRewardPool",
          "type": "uint256",
          "internalType": "uint256"
        }
      ],
      "outputs": [
        {
          "name": "",
          "type": "uint256",
          "internalType": "uint256"
        }
      ],
      "stateMutability": "nonpayable"
    },
    {
      "type": "function",
      "name": "creatorCampaigns",
      "inputs": [
        {
          "name": "",
          "type": "address",
          "internalType": "address"
        },
        {
          "name": "",
          "type": "uint256",
          "internalType": "uint256"
        }
      ],
      "outputs": [
        {
          "name": "",
          "type": "uint256",
          "internalType": "uint256"
        }
      ],
      "stateMutability": "view"
    },
    {
      "type": "function",
      "name": "fanCampaigns",
      "inputs": [
        {
          "name": "",
          "type": "address",
          "internalType": "address"
        },
        {
          "name": "",
          "type": "uint256",
          "internalType": "uint256"
        }
      ],
      "outputs": [
        {
          "name": "",
          "type": "uint256",
          "internalType": "uint256"
        }
      ],
      "stateMutability": "view"
    },
    {
      "type": "function",
      "name": "fanProgress",
      "inputs": [
        {
          "name": "",
          "type": "uint256",
          "internalType": "uint256"
        },
        {
          "name": "",
          "type": "address",
          "internalType": "address"
        }
      ],
      "outputs": [
        {
          "name": "points",
          "type": "uint256",
          "internalType": "uint256"
        },
        {
          "name": "lastClaimTime",
          "type": "uint256",
          "internalType": "uint256"
        }
      ],
      "stateMutability": "view"
    },
    {
      "type": "function",
      "name": "getCampaignMilestones",
      "inputs": [
        {
          "name": "_campaignId",
          "type": "uint256",
          "internalType": "uint256"
        }
      ],
      "outputs": [
        {
          "name": "",
          "type": "tuple[]",
          "internalType": "struct CampaignManager.Milestone[]",
          "components": [
            {
              "name": "threshold",
              "type": "uint256",
              "internalType": "uint256"
            },
            {
              "name": "rewardAmount",
              "type": "uint256",
              "internalType": "uint256"
            },
            {
              "name": "isActive",
              "type": "bool",
              "internalType": "bool"
            }
          ]
        }
      ],
      "stateMutability": "view"
    },
    {
      "type": "function",
      "name": "getCreatorCampaigns",
      "inputs": [
        {
          "name": "_creator",
          "type": "address",
          "internalType": "address"
        }
      ],
      "outputs": [
        {
          "name": "",
          "type": "uint256[]",
          "internalType": "uint256[]"
        }
      ],
      "stateMutability": "view"
    },
    {
      "type": "function",
      "name": "getFanCampaigns",
      "inputs": [
        {
          "name": "_fan",
          "type": "address",
          "internalType": "address"
        }
      ],
      "outputs": [
        {
          "name": "",
          "type": "uint256[]",
          "internalType": "uint256[]"
        }
      ],
      "stateMutability": "view"
    },
    {
      "type": "function",
      "name": "getFanProgress",
      "inputs": [
        {
          "name": "_campaignId",
          "type": "uint256",
          "internalType": "uint256"
        },
        {
          "name": "_fan",
          "type": "address",
          "internalType": "address"
        }
      ],
      "outputs": [
        {
          "name": "",
          "type": "uint256",
          "internalType": "uint256"
        },
        {
          "name": "",
          "type": "uint256",
          "internalType": "uint256"
        }
      ],
      "stateMutability": "view"
    },
    {
      "type": "function",
      "name": "isMilestoneClaimed",
      "inputs": [
        {
          "name": "_campaignId",
          "type": "uint256",
          "internalType": "uint256"
        },
        {
          "name": "_fan",
          "type": "address",
          "internalType": "address"
        },
        {
          "name": "_milestoneIndex",
          "type": "uint256",
          "internalType": "uint256"
        }
      ],
      "outputs": [
        {
          "name": "",
          "type": "bool",
          "internalType": "bool"
        }
      ],
      "stateMutability": "view"
    },
    {
      "type": "function",
      "name": "owner",
      "inputs": [],
      "outputs": [
        {
          "name": "",
          "type": "address",
          "internalType": "address"
        }
      ],
      "stateMutability": "view"
    },
    {
      "type": "function",
      "name": "renounceOwnership",
      "inputs": [],
      "outputs": [],
      "stateMutability": "nonpayable"
    },
    {
      "type": "function",
      "name": "toggleCampaignStatus",
      "inputs": [
        {
          "name": "_campaignId",
          "type": "uint256",
          "internalType": "uint256"
        }
      ],
      "outputs": [],
      "stateMutability": "nonpayable"
    },
    {
      "type": "function",
      "name": "transferOwnership",
      "inputs": [
        {
          "name": "newOwner",
          "type": "address",
          "internalType": "address"
        }
      ],
      "outputs": [],
      "stateMutability": "nonpayable"
    },
    {
      "type": "function",
      "name": "userRegistry",
      "inputs": [],
      "outputs": [
        {
          "name": "",
          "type": "address",
          "internalType": "contract UserRegistry"
        }
      ],
      "stateMutability": "view"
    },
    {
      "type": "event",
      "name": "CampaignCreated",
      "inputs": [
        {
          "name": "campaignId",
          "type": "uint256",
          "indexed": true,
          "internalType": "uint256"
        },
        {
          "name": "creator",
          "type": "address",
          "indexed": true,
          "internalType": "address"
        },
        {
          "name": "name",
          "type": "string",
          "indexed": false,
          "internalType": "string"
        }
      ],
      "anonymous": false
    },
    {
      "type": "event",
      "name": "CampaignStatusChanged",
      "inputs": [
        {
          "name": "campaignId",
          "type": "uint256",
          "indexed": true,
          "internalType": "uint256"
        },
        {
          "name": "isActive",
          "type": "bool",
          "indexed": false,
          "internalType": "bool"
        }
      ],
      "anonymous": false
    },
    {
      "type": "event",
      "name": "MilestoneAdded",
      "inputs": [
        {
          "name": "campaignId",
          "type": "uint256",
          "indexed": true,
          "internalType": "uint256"
        },
        {
          "name": "milestoneIndex",
          "type": "uint256",
          "indexed": false,
          "internalType": "uint256"
        },
        {
          "name": "threshold",
          "type": "uint256",
          "indexed": false,
          "internalType": "uint256"
        },
        {
          "name": "reward",
          "type": "uint256",
          "indexed": false,
          "internalType": "uint256"
        }
      ],
      "anonymous": false
    },
    {
      "type": "event",
      "name": "OwnershipTransferred",
      "inputs": [
        {
          "name": "previousOwner",
          "type": "address",
          "indexed": true,
          "internalType": "address"
        },
        {
          "name": "newOwner",
          "type": "address",
          "indexed": true,
          "internalType": "address"
        }
      ],
      "anonymous": false
    },
    {
      "type": "event",
      "name": "PointsAwarded",
      "inputs": [
        {
          "name": "campaignId",
          "type": "uint256",
          "indexed": true,
          "internalType": "uint256"
        },
        {
          "name": "fan",
          "type": "address",
          "indexed": true,
          "internalType": "address"
        },
        {
          "name": "points",
          "type": "uint256",
          "indexed": false,
          "internalType": "uint256"
        }
      ],
      "anonymous": false
    },
    {
      "type": "event",
      "name": "RewardClaimed",
      "inputs": [
        {
          "name": "campaignId",
          "type": "uint256",
          "indexed": true,
          "internalType": "uint256"
        },
        {
          "name": "fan",
          "type": "address",
          "indexed": true,
          "internalType": "address"
        },
        {
          "name": "milestoneIndex",
          "type": "uint256",
          "indexed": false,
          "internalType": "uint256"
        },
        {
          "name": "reward",
          "type": "uint256",
          "indexed": false,
          "internalType": "uint256"
        }
      ],
      "anonymous": false
    },
    {
      "type": "error",
      "name": "OwnableInvalidOwner",
      "inputs": [
        {
          "name": "owner",
          "type": "address",
          "internalType": "address"
        }
      ]
    },
    {
      "type": "error",
      "name": "OwnableUnauthorizedAccount",
      "inputs": [
        {
          "name": "account",
          "type": "address",
          "internalType": "address"
        }
      ]
    },
    {
      "type": "error",
      "name": "ReentrancyGuardReentrantCall",
      "inputs": []
    }
  ],
  "bytecode": {
    "object": "0x608060405234801561000f575f5ffd5b50604051612a71380380612a718339818101604052810190610031919061021e565b335f73ffffffffffffffffffffffffffffffffffffffff168173ffffffffffffffffffffffffffffffffffffffff16036100a2575f6040517f1e4fbdf70000000000000000000000000000000000000000000000000000000081526004016100999190610258565b60405180910390fd5b6100b1816100ff60201b60201c565b50600180819055508060025f6101000a81548173ffffffffffffffffffffffffffffffffffffffff021916908373ffffffffffffffffffffffffffffffffffffffff16021790555050610271565b5f5f5f9054906101000a900473ffffffffffffffffffffffffffffffffffffffff169050815f5f6101000a81548173ffffffffffffffffffffffffffffffffffffffff021916908373ffffffffffffffffffffffffffffffffffffffff1602179055508173ffffffffffffffffffffffffffffffffffffffff168173ffffffffffffffffffffffffffffffffffffffff167f8be0079c531659141344cd1fd0a4f28419497f9722a3daafe3b4186f6b6457e060405160405180910390a35050565b5f5ffd5b5f73ffffffffffffffffffffffffffffffffffffffff82169050919050565b5f6101ed826101c4565b9050919050565b6101fd816101e3565b8114610207575f5ffd5b50565b5f81519050610218816101f4565b92915050565b5f60208284031215610233576102326101c0565b5b5f6102408482850161020a565b91505092915050565b610252816101e3565b82525050565b5f60208201905061026b5f830184610249565b92915050565b6127f38061027e5f395ff3fe608060405234801561000f575f5ffd5b506004361061011f575f3560e01c8063b1dd9968116100ab578063d9e94d051161006f578063d9e94d0514610332578063ddc8af6114610362578063f2fde38b14610392578063f91e4b29146103ae578063fca604d7146103de5761011f565b8063b1dd99681461027e578063b4486b131461029a578063b5c89219146102b6578063b783b64f146102e6578063d279830c146103165761011f565b80635c7460d6116100f25780635c7460d6146101d7578063715018a6146101f557806376edca3d146101ff5780638da5cb5b1461022f57806394eb63bc1461024d5761011f565b80630759749e146101235780630d8d0e4314610154578063141961bc146101845780634297457a146101bb575b5f5ffd5b61013d60048036038101906101389190611794565b6103fc565b60405161014b9291906117e1565b60405180910390f35b61016e60048036038101906101699190611808565b610462565b60405161017b9190611872565b60405180910390f35b61019e6004803603810190610199919061188b565b6104d7565b6040516101b2989796959493929190611935565b60405180910390f35b6101d560048036038101906101d0919061188b565b610652565b005b6101df61076e565b6040516101ec9190611a1a565b60405180910390f35b6101fd610793565b005b61021960048036038101906102149190611a33565b6107a6565b6040516102269190611b15565b60405180910390f35b610237610839565b6040516102449190611b35565b60405180910390f35b61026760048036038101906102629190611794565b610860565b6040516102759291906117e1565b60405180910390f35b61029860048036038101906102939190611808565b61088b565b005b6102b460048036038101906102af9190611b4e565b610a78565b005b6102d060048036038101906102cb9190611bed565b610ea0565b6040516102dd9190611ca4565b60405180910390f35b61030060048036038101906102fb9190611cbd565b61118d565b60405161030d9190611ca4565b60405180910390f35b610330600480360381019061032b9190611cfb565b6111b8565b005b61034c60048036038101906103479190611a33565b61137c565b6040516103599190611b15565b60405180910390f35b61037c60048036038101906103779190611cbd565b61140f565b6040516103899190611ca4565b60405180910390f35b6103ac60048036038101906103a79190611a33565b61143a565b005b6103c860048036038101906103c3919061188b565b6114be565b6040516103d59190611e42565b60405180910390f35b6103e661155b565b6040516103f39190611ca4565b60405180910390f35b5f5f5f60055f8681526020019081526020015f205f8573ffffffffffffffffffffffffffffffffffffffff1673ffffffffffffffffffffffffffffffffffffffff1681526020019081526020015f209050805f0154816001015492509250509250929050565b5f60055f8581526020019081526020015f205f8473ffffffffffffffffffffffffffffffffffffffff1673ffffffffffffffffffffffffffffffffffffffff1681526020019081526020015f206002015f8381526020019081526020015f205f9054906101000a900460ff1690509392505050565b6004602052805f5260405f205f91509050805f015f9054906101000a900473ffffffffffffffffffffffffffffffffffffffff169080600101805461051b90611e8f565b80601f016020809104026020016040519081016040528092919081815260200182805461054790611e8f565b80156105925780601f1061056957610100808354040283529160200191610592565b820191905f5260205f20905b81548152906001019060200180831161057557829003601f168201915b5050505050908060020180546105a790611e8f565b80601f01602080910402602001604051908101604052809291908181526020018280546105d390611e8f565b801561061e5780601f106105f55761010080835404028352916020019161061e565b820191905f5260205f20905b81548152906001019060200180831161060157829003601f168201915b505050505090806003015490806004015490806005015f9054906101000a900460ff16908060060154908060070154905088565b5f60045f8381526020019081526020015f2090503373ffffffffffffffffffffffffffffffffffffffff16815f015f9054906101000a900473ffffffffffffffffffffffffffffffffffffffff1673ffffffffffffffffffffffffffffffffffffffff16146106f6576040517f08c379a00000000000000000000000000000000000000000000000000000000081526004016106ed90611f09565b60405180910390fd5b806005015f9054906101000a900460ff1615816005015f6101000a81548160ff021916908315150217905550817f33641491749634f1bb4cfb02728199b749f89fca34cc54faf7e74bbb84910885826005015f9054906101000a900460ff166040516107629190611872565b60405180910390a25050565b60025f9054906101000a900473ffffffffffffffffffffffffffffffffffffffff1681565b61079b611561565b6107a45f6115e8565b565b606060065f8373ffffffffffffffffffffffffffffffffffffffff1673ffffffffffffffffffffffffffffffffffffffff1681526020019081526020015f2080548060200260200160405190810160405280929190818152602001828054801561082d57602002820191905f5260205f20905b815481526020019060010190808311610819575b50505050509050919050565b5f5f5f9054906101000a900473ffffffffffffffffffffffffffffffffffffffff16905090565b6005602052815f5260405f20602052805f5260405f205f9150915050805f0154908060010154905082565b610893611561565b5f60045f8581526020019081526020015f209050806005015f9054906101000a900460ff166108f7576040517f08c379a00000000000000000000000000000000000000000000000000000000081526004016108ee90611f71565b60405180910390fd5b8060030154421015801561090f575080600401544211155b61094e576040517f08c379a000000000000000000000000000000000000000000000000000000000815260040161094590611fd9565b60405180910390fd5b5f60055f8681526020019081526020015f205f8573ffffffffffffffffffffffffffffffffffffffff1673ffffffffffffffffffffffffffffffffffffffff1681526020019081526020015f2090505f815f015403610a095760075f8573ffffffffffffffffffffffffffffffffffffffff1673ffffffffffffffffffffffffffffffffffffffff1681526020019081526020015f2085908060018154018082558091505060019003905f5260205f20015f90919091909150555b82815f015f828254610a1b9190612024565b925050819055508373ffffffffffffffffffffffffffffffffffffffff16857f0dbadce3c07b5bc30ebbe2bcec3d6bb95f9b3a0bb33178ff0d61e4d7d433991585604051610a699190611ca4565b60405180910390a35050505050565b610a806116a9565b5f60045f8481526020019081526020015f209050806005015f9054906101000a900460ff16610ae4576040517f08c379a0000000000000000000000000000000000000000000000000000000008152600401610adb90611f71565b60405180910390fd5b5f60055f8581526020019081526020015f205f3373ffffffffffffffffffffffffffffffffffffffff1673ffffffffffffffffffffffffffffffffffffffff1681526020019081526020015f209050806002015f8481526020019081526020015f205f9054906101000a900460ff1615610b93576040517f08c379a0000000000000000000000000000000000000000000000000000000008152600401610b8a906120a1565b60405180910390fd5b5f826008018481548110610baa57610ba96120bf565b5b905f5260205f2090600302019050806002015f9054906101000a900460ff16610c08576040517f08c379a0000000000000000000000000000000000000000000000000000000008152600401610bff90612136565b60405180910390fd5b805f0154825f01541015610c51576040517f08c379a0000000000000000000000000000000000000000000000000000000008152600401610c489061219e565b60405180910390fd5b6001826002015f8681526020019081526020015f205f6101000a81548160ff0219169083151502179055504282600101819055508060010154836007015f828254610c9c9190612024565b925050819055505f60025f9054906101000a900473ffffffffffffffffffffffffffffffffffffffff1673ffffffffffffffffffffffffffffffffffffffff1663a6fa1542855f015f9054906101000a900473ffffffffffffffffffffffffffffffffffffffff166040518263ffffffff1660e01b8152600401610d209190611b35565b602060405180830381865afa158015610d3b573d5f5f3e3d5ffd5b505050506040513d601f19601f82011682018060405250810190610d5f91906121d0565b90505f73ffffffffffffffffffffffffffffffffffffffff168173ffffffffffffffffffffffffffffffffffffffff1603610dcf576040517f08c379a0000000000000000000000000000000000000000000000000000000008152600401610dc690612245565b60405180910390fd5b8073ffffffffffffffffffffffffffffffffffffffff166340c10f193384600101546040518363ffffffff1660e01b8152600401610e0e929190612263565b5f604051808303815f87803b158015610e25575f5ffd5b505af1158015610e37573d5f5f3e3d5ffd5b505050503373ffffffffffffffffffffffffffffffffffffffff16867ffc6ecd966b430510beae9124efe7dd517ed5286d7ed0ae258f8556c7a9765a44878560010154604051610e889291906117e1565b60405180910390a350505050610e9c6116ef565b5050565b5f60025f9054906101000a900473ffffffffffffffffffffffffffffffffffffffff1673ffffffffffffffffffffffffffffffffffffffff1663efd46065336040518263ffffffff1660e01b8152600401610efb9190611b35565b602060405180830381865afa158015610f16573d5f5f3e3d5ffd5b505050506040513d601f19601f82011682018060405250810190610f3a91906122b4565b610f79576040517f08c379a0000000000000000000000000000000000000000000000000000000008152600401610f7090612329565b60405180910390fd5b838311610fbb576040517f08c379a0000000000000000000000000000000000000000000000000000000008152600401610fb290612391565b60405180910390fd5b42841015610ffe576040517f08c379a0000000000000000000000000000000000000000000000000000000008152600401610ff5906123f9565b60405180910390fd5b5f60035f81548092919061101190612417565b9190505590505f60045f8381526020019081526020015f20905033815f015f6101000a81548173ffffffffffffffffffffffffffffffffffffffff021916908373ffffffffffffffffffffffffffffffffffffffff160217905550898982600101918261107f92919061262c565b50878782600201918261109392919061262c565b508581600301819055508481600401819055506001816005015f6101000a81548160ff02191690831515021790555083816006018190555060065f3373ffffffffffffffffffffffffffffffffffffffff1673ffffffffffffffffffffffffffffffffffffffff1681526020019081526020015f2082908060018154018082558091505060019003905f5260205f20015f90919091909150553373ffffffffffffffffffffffffffffffffffffffff16827fc04c663886cae794dc52158f70fe6c8ee3b0140d4f48647282f9b693ff688a658c8c604051611175929190612733565b60405180910390a38192505050979650505050505050565b6007602052815f5260405f2081815481106111a6575f80fd5b905f5260205f20015f91509150505481565b5f60045f8581526020019081526020015f2090503373ffffffffffffffffffffffffffffffffffffffff16815f015f9054906101000a900473ffffffffffffffffffffffffffffffffffffffff1673ffffffffffffffffffffffffffffffffffffffff161461125c576040517f08c379a000000000000000000000000000000000000000000000000000000000815260040161125390611f09565b60405180910390fd5b806005015f9054906101000a900460ff166112ac576040517f08c379a00000000000000000000000000000000000000000000000000000000081526004016112a390611f71565b60405180910390fd5b80600801604051806060016040528085815260200184815260200160011515815250908060018154018082558091505060019003905f5260205f2090600302015f909190919091505f820151815f0155602082015181600101556040820151816002015f6101000a81548160ff0219169083151502179055505050837f12611a834b70202d87a0d14a8a1bf8920b2827efff429dfa9c08f62b6096e3c46001836008018054905061135d9190612755565b858560405161136e93929190612788565b60405180910390a250505050565b606060075f8373ffffffffffffffffffffffffffffffffffffffff1673ffffffffffffffffffffffffffffffffffffffff1681526020019081526020015f2080548060200260200160405190810160405280929190818152602001828054801561140357602002820191905f5260205f20905b8154815260200190600101908083116113ef575b50505050509050919050565b6006602052815f5260405f208181548110611428575f80fd5b905f5260205f20015f91509150505481565b611442611561565b5f73ffffffffffffffffffffffffffffffffffffffff168173ffffffffffffffffffffffffffffffffffffffff16036114b2575f6040517f1e4fbdf70000000000000000000000000000000000000000000000000000000081526004016114a99190611b35565b60405180910390fd5b6114bb816115e8565b50565b606060045f8381526020019081526020015f20600801805480602002602001604051908101604052809291908181526020015f905b82821015611550578382905f5260205f2090600302016040518060600160405290815f820154815260200160018201548152602001600282015f9054906101000a900460ff161515151581525050815260200190600101906114f3565b505050509050919050565b60035481565b6115696116f8565b73ffffffffffffffffffffffffffffffffffffffff16611587610839565b73ffffffffffffffffffffffffffffffffffffffff16146115e6576115aa6116f8565b6040517f118cdaa70000000000000000000000000000000000000000000000000000000081526004016115dd9190611b35565b60405180910390fd5b565b5f5f5f9054906101000a900473ffffffffffffffffffffffffffffffffffffffff169050815f5f6101000a81548173ffffffffffffffffffffffffffffffffffffffff021916908373ffffffffffffffffffffffffffffffffffffffff1602179055508173ffffffffffffffffffffffffffffffffffffffff168173ffffffffffffffffffffffffffffffffffffffff167f8be0079c531659141344cd1fd0a4f28419497f9722a3daafe3b4186f6b6457e060405160405180910390a35050565b6002600154036116e5576040517f3ee5aeb500000000000000000000000000000000000000000000000000000000815260040160405180910390fd5b6002600181905550565b60018081905550565b5f33905090565b5f5ffd5b5f5ffd5b5f819050919050565b61171981611707565b8114611723575f5ffd5b50565b5f8135905061173481611710565b92915050565b5f73ffffffffffffffffffffffffffffffffffffffff82169050919050565b5f6117638261173a565b9050919050565b61177381611759565b811461177d575f5ffd5b50565b5f8135905061178e8161176a565b92915050565b5f5f604083850312156117aa576117a96116ff565b5b5f6117b785828601611726565b92505060206117c885828601611780565b9150509250929050565b6117db81611707565b82525050565b5f6040820190506117f45f8301856117d2565b61180160208301846117d2565b9392505050565b5f5f5f6060848603121561181f5761181e6116ff565b5b5f61182c86828701611726565b935050602061183d86828701611780565b925050604061184e86828701611726565b9150509250925092565b5f8115159050919050565b61186c81611858565b82525050565b5f6020820190506118855f830184611863565b92915050565b5f602082840312156118a05761189f6116ff565b5b5f6118ad84828501611726565b91505092915050565b6118bf81611759565b82525050565b5f81519050919050565b5f82825260208201905092915050565b8281835e5f83830152505050565b5f601f19601f8301169050919050565b5f611907826118c5565b61191181856118cf565b93506119218185602086016118df565b61192a816118ed565b840191505092915050565b5f610100820190506119495f83018b6118b6565b818103602083015261195b818a6118fd565b9050818103604083015261196f81896118fd565b905061197e60608301886117d2565b61198b60808301876117d2565b61199860a0830186611863565b6119a560c08301856117d2565b6119b260e08301846117d2565b9998505050505050505050565b5f819050919050565b5f6119e26119dd6119d88461173a565b6119bf565b61173a565b9050919050565b5f6119f3826119c8565b9050919050565b5f611a04826119e9565b9050919050565b611a14816119fa565b82525050565b5f602082019050611a2d5f830184611a0b565b92915050565b5f60208284031215611a4857611a476116ff565b5b5f611a5584828501611780565b91505092915050565b5f81519050919050565b5f82825260208201905092915050565b5f819050602082019050919050565b611a9081611707565b82525050565b5f611aa18383611a87565b60208301905092915050565b5f602082019050919050565b5f611ac382611a5e565b611acd8185611a68565b9350611ad883611a78565b805f5b83811015611b08578151611aef8882611a96565b9750611afa83611aad565b925050600181019050611adb565b5085935050505092915050565b5f6020820190508181035f830152611b2d8184611ab9565b905092915050565b5f602082019050611b485f8301846118b6565b92915050565b5f5f60408385031215611b6457611b636116ff565b5b5f611b7185828601611726565b9250506020611b8285828601611726565b9150509250929050565b5f5ffd5b5f5ffd5b5f5ffd5b5f5f83601f840112611bad57611bac611b8c565b5b8235905067ffffffffffffffff811115611bca57611bc9611b90565b5b602083019150836001820283011115611be657611be5611b94565b5b9250929050565b5f5f5f5f5f5f5f60a0888a031215611c0857611c076116ff565b5b5f88013567ffffffffffffffff811115611c2557611c24611703565b5b611c318a828b01611b98565b9750975050602088013567ffffffffffffffff811115611c5457611c53611703565b5b611c608a828b01611b98565b95509550506040611c738a828b01611726565b9350506060611c848a828b01611726565b9250506080611c958a828b01611726565b91505092959891949750929550565b5f602082019050611cb75f8301846117d2565b92915050565b5f5f60408385031215611cd357611cd26116ff565b5b5f611ce085828601611780565b9250506020611cf185828601611726565b9150509250929050565b5f5f5f60608486031215611d1257611d116116ff565b5b5f611d1f86828701611726565b9350506020611d3086828701611726565b9250506040611d4186828701611726565b9150509250925092565b5f81519050919050565b5f82825260208201905092915050565b5f819050602082019050919050565b611d7d81611858565b82525050565b606082015f820151611d975f850182611a87565b506020820151611daa6020850182611a87565b506040820151611dbd6040850182611d74565b50505050565b5f611dce8383611d83565b60608301905092915050565b5f602082019050919050565b5f611df082611d4b565b611dfa8185611d55565b9350611e0583611d65565b805f5b83811015611e35578151611e1c8882611dc3565b9750611e2783611dda565b925050600181019050611e08565b5085935050505092915050565b5f6020820190508181035f830152611e5a8184611de6565b905092915050565b7f4e487b71000000000000000000000000000000000000000000000000000000005f52602260045260245ffd5b5f6002820490506001821680611ea657607f821691505b602082108103611eb957611eb8611e62565b5b50919050565b7f4e6f742063616d706169676e2063726561746f720000000000000000000000005f82015250565b5f611ef36014836118cf565b9150611efe82611ebf565b602082019050919050565b5f6020820190508181035f830152611f2081611ee7565b9050919050565b7f43616d706169676e206e6f7420616374697665000000000000000000000000005f82015250565b5f611f5b6013836118cf565b9150611f6682611f27565b602082019050919050565b5f6020820190508181035f830152611f8881611f4f565b9050919050565b7f4e6f742072756e6e696e670000000000000000000000000000000000000000005f82015250565b5f611fc3600b836118cf565b9150611fce82611f8f565b602082019050919050565b5f6020820190508181035f830152611ff081611fb7565b9050919050565b7f4e487b71000000000000000000000000000000000000000000000000000000005f52601160045260245ffd5b5f61202e82611707565b915061203983611707565b925082820190508082111561205157612050611ff7565b5b92915050565b7f416c726561647920636c61696d656400000000000000000000000000000000005f82015250565b5f61208b600f836118cf565b915061209682612057565b602082019050919050565b5f6020820190508181035f8301526120b88161207f565b9050919050565b7f4e487b71000000000000000000000000000000000000000000000000000000005f52603260045260245ffd5b7f4d696c6573746f6e65206e6f74206163746976650000000000000000000000005f82015250565b5f6121206014836118cf565b915061212b826120ec565b602082019050919050565b5f6020820190508181035f83015261214d81612114565b9050919050565b7f496e73756666696369656e7420706f696e7473000000000000000000000000005f82015250565b5f6121886013836118cf565b915061219382612154565b602082019050919050565b5f6020820190508181035f8301526121b58161217c565b9050919050565b5f815190506121ca8161176a565b92915050565b5f602082840312156121e5576121e46116ff565b5b5f6121f2848285016121bc565b91505092915050565b7f43726561746f7220636f696e206e6f74207365740000000000000000000000005f82015250565b5f61222f6014836118cf565b915061223a826121fb565b602082019050919050565b5f6020820190508181035f83015261225c81612223565b9050919050565b5f6040820190506122765f8301856118b6565b61228360208301846117d2565b9392505050565b61229381611858565b811461229d575f5ffd5b50565b5f815190506122ae8161228a565b92915050565b5f602082840312156122c9576122c86116ff565b5b5f6122d6848285016122a0565b91505092915050565b7f4e6f7420612063726561746f72000000000000000000000000000000000000005f82015250565b5f612313600d836118cf565b915061231e826122df565b602082019050919050565b5f6020820190508181035f83015261234081612307565b9050919050565b7f496e76616c69642074696d652072616e676500000000000000000000000000005f82015250565b5f61237b6012836118cf565b915061238682612347565b602082019050919050565b5f6020820190508181035f8301526123a88161236f565b9050919050565b7f53746172742074696d6520696e207061737400000000000000000000000000005f82015250565b5f6123e36012836118cf565b91506123ee826123af565b602082019050919050565b5f6020820190508181035f830152612410816123d7565b9050919050565b5f61242182611707565b91507fffffffffffffffffffffffffffffffffffffffffffffffffffffffffffffffff820361245357612452611ff7565b5b600182019050919050565b5f82905092915050565b7f4e487b71000000000000000000000000000000000000000000000000000000005f52604160045260245ffd5b5f819050815f5260205f209050919050565b5f6020601f8301049050919050565b5f82821b905092915050565b5f600883026124f17fffffffffffffffffffffffffffffffffffffffffffffffffffffffffffffffff826124b6565b6124fb86836124b6565b95508019841693508086168417925050509392505050565b5f61252d61252861252384611707565b6119bf565b611707565b9050919050565b5f819050919050565b61254683612513565b61255a61255282612534565b8484546124c2565b825550505050565b5f5f905090565b612571612562565b61257c81848461253d565b505050565b5b8181101561259f576125945f82612569565b600181019050612582565b5050565b601f8211156125e4576125b581612495565b6125be846124a7565b810160208510156125cd578190505b6125e16125d9856124a7565b830182612581565b50505b505050565b5f82821c905092915050565b5f6126045f19846008026125e9565b1980831691505092915050565b5f61261c83836125f5565b9150826002028217905092915050565b612636838361245e565b67ffffffffffffffff81111561264f5761264e612468565b5b6126598254611e8f565b6126648282856125a3565b5f601f831160018114612691575f841561267f578287013590505b6126898582612611565b8655506126f0565b601f19841661269f86612495565b5f5b828110156126c6578489013582556001820191506020850194506020810190506126a1565b868310156126e357848901356126df601f8916826125f5565b8355505b6001600288020188555050505b50505050505050565b828183375f83830152505050565b5f61271283856118cf565b935061271f8385846126f9565b612728836118ed565b840190509392505050565b5f6020820190508181035f83015261274c818486612707565b90509392505050565b5f61275f82611707565b915061276a83611707565b925082820390508181111561278257612781611ff7565b5b92915050565b5f60608201905061279b5f8301866117d2565b6127a860208301856117d2565b6127b560408301846117d2565b94935050505056fea26469706673582212202e4ea1c2be8e18b2d02c5f0f357c7252d143529be9f881ef6f6ed5c59dd4e1eb64736f6c634300081e0033",
    "linkReferences": {}
  },
  "methodIdentifiers": {
    "addMilestone(uint256,uint256,uint256)": "d279830c",
    "awardPoints(uint256,address,uint256)": "b1dd9968",
    "campaignCounter()": "fca604d7",
    "campaigns(uint256)": "141961bc",
    "claimMilestoneReward(uint256,uint256)": "b4486b13",
    "createCampaign(string,string,uint256,uint256,uint256)": "b5c89219",
    "creatorCampaigns(address,uint256)": "ddc8af61",
    "fanCampaigns(address,uint256)": "b783b64f",
    "fanProgress(uint256,address)": "94eb63bc",
    "getCampaignMilestones(uint256)": "f91e4b29",
    "getCreatorCampaigns(address)": "76edca3d",
    "getFanCampaigns(address)": "d9e94d05",
    "getFanProgress(uint256,address)": "0759749e",
    "isMilestoneClaimed(uint256,address,uint256)": "0d8d0e43",
    "owner()": "8da5cb5b",
    "renounceOwnership()": "715018a6",
    "toggleCampaignStatus(uint256)": "4297457a",
    "transferOwnership(address)": "f2fde38b",
    "userRegistry()": "5c7460d6"
  },
  "id": 29
}