{
  "abi": [
    {
      "type": "constructor",
      "inputs": [],
      "stateMutability": "nonpayable"
    },
    {
      "type": "function",
      "name": "accessControl",
      "inputs": [],
      "outputs": [
        {
          "name": "",
          "type": "address",
          "internalType": "contract AccessControl"
        }
      ],
      "stateMutability": "view"
    },
    {
      "type": "function",
      "name": "campaignManager",
      "inputs": [],
      "outputs": [
        {
          "name": "",
          "type": "address",
          "internalType": "contract CampaignManager"
        }
      ],
      "stateMutability": "view"
    },
    {
      "type": "function",
      "name": "getContracts",
      "inputs": [],
      "outputs": [
        {
          "name": "_userRegistry",
          "type": "address",
          "internalType": "address"
        },
        {
          "name": "_campaignManager",
          "type": "address",
          "internalType": "address"
        },
        {
          "name": "_accessControl",
          "type": "address",
          "internalType": "address"
        },
        {
          "name": "_redemptionManager",
          "type": "address",
          "internalType": "address"
        }
      ],
      "stateMutability": "view"
    },
    {
      "type": "function",
      "name": "owner",
      "inputs": [],
      "outputs": [
        {
          "name": "",
          "type": "address",
          "internalType": "address"
        }
      ],
      "stateMutability": "view"
    },
    {
      "type": "function",
      "name": "redemptionManager",
      "inputs": [],
      "outputs": [
        {
          "name": "",
          "type": "address",
          "internalType": "contract RedemptionManager"
        }
      ],
      "stateMutability": "view"
    },
    {
      "type": "function",
      "name": "renounceOwnership",
      "inputs": [],
      "outputs": [],
      "stateMutability": "nonpayable"
    },
    {
      "type": "function",
      "name": "transferAccessControlOwnership",
      "inputs": [
        {
          "name": "newOwner",
          "type": "address",
          "internalType": "address"
        }
      ],
      "outputs": [],
      "stateMutability": "nonpayable"
    },
    {
      "type": "function",
      "name": "transferAllOwnership",
      "inputs": [
        {
          "name": "newOwner",
          "type": "address",
          "internalType": "address"
        }
      ],
      "outputs": [],
      "stateMutability": "nonpayable"
    },
    {
      "type": "function",
      "name": "transferCampaignManagerOwnership",
      "inputs": [
        {
          "name": "newOwner",
          "type": "address",
          "internalType": "address"
        }
      ],
      "outputs": [],
      "stateMutability": "nonpayable"
    },
    {
      "type": "function",
      "name": "transferOwnership",
      "inputs": [
        {
          "name": "newOwner",
          "type": "address",
          "internalType": "address"
        }
      ],
      "outputs": [],
      "stateMutability": "nonpayable"
    },
    {
      "type": "function",
      "name": "transferRedemptionManagerOwnership",
      "inputs": [
        {
          "name": "newOwner",
          "type": "address",
          "internalType": "address"
        }
      ],
      "outputs": [],
      "stateMutability": "nonpayable"
    },
    {
      "type": "function",
      "name": "transferUserRegistryOwnership",
      "inputs": [
        {
          "name": "newOwner",
          "type": "address",
          "internalType": "address"
        }
      ],
      "outputs": [],
      "stateMutability": "nonpayable"
    },
    {
      "type": "function",
      "name": "userRegistry",
      "inputs": [],
      "outputs": [
        {
          "name": "",
          "type": "address",
          "internalType": "contract UserRegistry"
        }
      ],
      "stateMutability": "view"
    },
    {
      "type": "event",
      "name": "OwnershipTransferred",
      "inputs": [
        {
          "name": "previousOwner",
          "type": "address",
          "indexed": true,
          "internalType": "address"
        },
        {
          "name": "newOwner",
          "type": "address",
          "indexed": true,
          "internalType": "address"
        }
      ],
      "anonymous": false
    },
    {
      "type": "event",
      "name": "PlatformDeployed",
      "inputs": [
        {
          "name": "userRegistry",
          "type": "address",
          "indexed": false,
          "internalType": "address"
        },
        {
          "name": "campaignManager",
          "type": "address",
          "indexed": false,
          "internalType": "address"
        },
        {
          "name": "accessControl",
          "type": "address",
          "indexed": false,
          "internalType": "address"
        },
        {
          "name": "redemptionManager",
          "type": "address",
          "indexed": false,
          "internalType": "address"
        }
      ],
      "anonymous": false
    },
    {
      "type": "error",
      "name": "OwnableInvalidOwner",
      "inputs": [
        {
          "name": "owner",
          "type": "address",
          "internalType": "address"
        }
      ]
    },
    {
      "type": "error",
      "name": "OwnableUnauthorizedAccount",
      "inputs": [
        {
          "name": "account",
          "type": "address",
          "internalType": "address"
        }
      ]
    }
  ],
  "bytecode": {
    "object": "0x608060405234801561000f575f5ffd5b50335f73ffffffffffffffffffffffffffffffffffffffff168173ffffffffffffffffffffffffffffffffffffffff1603610081575f6040517f1e4fbdf700000000000000000000000000000000000000000000000000000000815260040161007891906104c6565b60405180910390fd5b6100908161039260201b60201c565b5060405161009d90610453565b604051809103905ff0801580156100b6573d5f5f3e3d5ffd5b5060015f6101000a81548173ffffffffffffffffffffffffffffffffffffffff021916908373ffffffffffffffffffffffffffffffffffffffff16021790555060015f9054906101000a900473ffffffffffffffffffffffffffffffffffffffff1660405161012490610460565b61012e91906104c6565b604051809103905ff080158015610147573d5f5f3e3d5ffd5b5060025f6101000a81548173ffffffffffffffffffffffffffffffffffffffff021916908373ffffffffffffffffffffffffffffffffffffffff16021790555060015f9054906101000a900473ffffffffffffffffffffffffffffffffffffffff166040516101b59061046d565b6101bf91906104c6565b604051809103905ff0801580156101d8573d5f5f3e3d5ffd5b5060035f6101000a81548173ffffffffffffffffffffffffffffffffffffffff021916908373ffffffffffffffffffffffffffffffffffffffff16021790555060015f9054906101000a900473ffffffffffffffffffffffffffffffffffffffff1660025f9054906101000a900473ffffffffffffffffffffffffffffffffffffffff166040516102689061047a565b6102739291906104df565b604051809103905ff08015801561028c573d5f5f3e3d5ffd5b5060045f6101000a81548173ffffffffffffffffffffffffffffffffffffffff021916908373ffffffffffffffffffffffffffffffffffffffff1602179055507fdcebc76fca3bfdb24a707ec82b7a65ea189ab09c2fb045eecda7b7fba669636f60015f9054906101000a900473ffffffffffffffffffffffffffffffffffffffff1660025f9054906101000a900473ffffffffffffffffffffffffffffffffffffffff1660035f9054906101000a900473ffffffffffffffffffffffffffffffffffffffff1660045f9054906101000a900473ffffffffffffffffffffffffffffffffffffffff166040516103859493929190610506565b60405180910390a1610549565b5f5f5f9054906101000a900473ffffffffffffffffffffffffffffffffffffffff169050815f5f6101000a81548173ffffffffffffffffffffffffffffffffffffffff021916908373ffffffffffffffffffffffffffffffffffffffff1602179055508173ffffffffffffffffffffffffffffffffffffffff168173ffffffffffffffffffffffffffffffffffffffff167f8be0079c531659141344cd1fd0a4f28419497f9722a3daafe3b4186f6b6457e060405160405180910390a35050565b6117d58061127a83390190565b612a7180612a4f83390190565b611d31806154c083390190565b61218b806171f183390190565b5f73ffffffffffffffffffffffffffffffffffffffff82169050919050565b5f6104b082610487565b9050919050565b6104c0816104a6565b82525050565b5f6020820190506104d95f8301846104b7565b92915050565b5f6040820190506104f25f8301856104b7565b6104ff60208301846104b7565b9392505050565b5f6080820190506105195f8301876104b7565b61052660208301866104b7565b61053360408301856104b7565b61054060608301846104b7565b95945050505050565b610d24806105565f395ff3fe608060405234801561000f575f5ffd5b50600436106100cd575f3560e01c8063715018a61161008a578063ceddd62e11610064578063ceddd62e146101c8578063d5b2c536146101e4578063f2fde38b14610200578063fb5e76e61461021c576100cd565b8063715018a61461017f5780638da5cb5b14610189578063c3a2a93a146101a7576100cd565b806313007d55146100d15780632a4ccd32146100ef5780632e2187281461010b5780633278eb0414610127578063595d9274146101455780635c7460d614610161575b5f5ffd5b6100d961023a565b6040516100e69190610acc565b60405180910390f35b61010960048036038101906101049190610b24565b61025f565b005b61012560048036038101906101209190610b24565b6102f1565b005b61012f610586565b60405161013c9190610b80565b60405180910390f35b61015f600480360381019061015a9190610b24565b6105ab565b005b61016961063d565b6040516101769190610bb9565b60405180910390f35b610187610662565b005b610191610675565b60405161019e9190610be1565b60405180910390f35b6101af61069c565b6040516101bf9493929190610bfa565b60405180910390f35b6101e260048036038101906101dd9190610b24565b610736565b005b6101fe60048036038101906101f99190610b24565b6107c8565b005b61021a60048036038101906102159190610b24565b61085a565b005b6102246108de565b6040516102319190610c5d565b60405180910390f35b60035f9054906101000a900473ffffffffffffffffffffffffffffffffffffffff1681565b610267610903565b60015f9054906101000a900473ffffffffffffffffffffffffffffffffffffffff1673ffffffffffffffffffffffffffffffffffffffff1663f2fde38b826040518263ffffffff1660e01b81526004016102c19190610be1565b5f604051808303815f87803b1580156102d8575f5ffd5b505af11580156102ea573d5f5f3e3d5ffd5b5050505050565b6102f9610903565b5f73ffffffffffffffffffffffffffffffffffffffff168173ffffffffffffffffffffffffffffffffffffffff1603610367576040517f08c379a000000000000000000000000000000000000000000000000000000000815260040161035e90610cd0565b60405180910390fd5b60015f9054906101000a900473ffffffffffffffffffffffffffffffffffffffff1673ffffffffffffffffffffffffffffffffffffffff1663f2fde38b826040518263ffffffff1660e01b81526004016103c19190610be1565b5f604051808303815f87803b1580156103d8575f5ffd5b505af11580156103ea573d5f5f3e3d5ffd5b5050505060025f9054906101000a900473ffffffffffffffffffffffffffffffffffffffff1673ffffffffffffffffffffffffffffffffffffffff1663f2fde38b826040518263ffffffff1660e01b81526004016104489190610be1565b5f604051808303815f87803b15801561045f575f5ffd5b505af1158015610471573d5f5f3e3d5ffd5b5050505060035f9054906101000a900473ffffffffffffffffffffffffffffffffffffffff1673ffffffffffffffffffffffffffffffffffffffff1663f2fde38b826040518263ffffffff1660e01b81526004016104cf9190610be1565b5f604051808303815f87803b1580156104e6575f5ffd5b505af11580156104f8573d5f5f3e3d5ffd5b5050505060045f9054906101000a900473ffffffffffffffffffffffffffffffffffffffff1673ffffffffffffffffffffffffffffffffffffffff1663f2fde38b826040518263ffffffff1660e01b81526004016105569190610be1565b5f604051808303815f87803b15801561056d575f5ffd5b505af115801561057f573d5f5f3e3d5ffd5b5050505050565b60045f9054906101000a900473ffffffffffffffffffffffffffffffffffffffff1681565b6105b3610903565b60025f9054906101000a900473ffffffffffffffffffffffffffffffffffffffff1673ffffffffffffffffffffffffffffffffffffffff1663f2fde38b826040518263ffffffff1660e01b815260040161060d9190610be1565b5f604051808303815f87803b158015610624575f5ffd5b505af1158015610636573d5f5f3e3d5ffd5b5050505050565b60015f9054906101000a900473ffffffffffffffffffffffffffffffffffffffff1681565b61066a610903565b6106735f61098a565b565b5f5f5f9054906101000a900473ffffffffffffffffffffffffffffffffffffffff16905090565b5f5f5f5f60015f9054906101000a900473ffffffffffffffffffffffffffffffffffffffff1660025f9054906101000a900473ffffffffffffffffffffffffffffffffffffffff1660035f9054906101000a900473ffffffffffffffffffffffffffffffffffffffff1660045f9054906101000a900473ffffffffffffffffffffffffffffffffffffffff16935093509350935090919293565b61073e610903565b60035f9054906101000a900473ffffffffffffffffffffffffffffffffffffffff1673ffffffffffffffffffffffffffffffffffffffff1663f2fde38b826040518263ffffffff1660e01b81526004016107989190610be1565b5f604051808303815f87803b1580156107af575f5ffd5b505af11580156107c1573d5f5f3e3d5ffd5b5050505050565b6107d0610903565b60045f9054906101000a900473ffffffffffffffffffffffffffffffffffffffff1673ffffffffffffffffffffffffffffffffffffffff1663f2fde38b826040518263ffffffff1660e01b815260040161082a9190610be1565b5f604051808303815f87803b158015610841575f5ffd5b505af1158015610853573d5f5f3e3d5ffd5b5050505050565b610862610903565b5f73ffffffffffffffffffffffffffffffffffffffff168173ffffffffffffffffffffffffffffffffffffffff16036108d2575f6040517f1e4fbdf70000000000000000000000000000000000000000000000000000000081526004016108c99190610be1565b60405180910390fd5b6108db8161098a565b50565b60025f9054906101000a900473ffffffffffffffffffffffffffffffffffffffff1681565b61090b610a4b565b73ffffffffffffffffffffffffffffffffffffffff16610929610675565b73ffffffffffffffffffffffffffffffffffffffff16146109885761094c610a4b565b6040517f118cdaa700000000000000000000000000000000000000000000000000000000815260040161097f9190610be1565b60405180910390fd5b565b5f5f5f9054906101000a900473ffffffffffffffffffffffffffffffffffffffff169050815f5f6101000a81548173ffffffffffffffffffffffffffffffffffffffff021916908373ffffffffffffffffffffffffffffffffffffffff1602179055508173ffffffffffffffffffffffffffffffffffffffff168173ffffffffffffffffffffffffffffffffffffffff167f8be0079c531659141344cd1fd0a4f28419497f9722a3daafe3b4186f6b6457e060405160405180910390a35050565b5f33905090565b5f73ffffffffffffffffffffffffffffffffffffffff82169050919050565b5f819050919050565b5f610a94610a8f610a8a84610a52565b610a71565b610a52565b9050919050565b5f610aa582610a7a565b9050919050565b5f610ab682610a9b565b9050919050565b610ac681610aac565b82525050565b5f602082019050610adf5f830184610abd565b92915050565b5f5ffd5b5f610af382610a52565b9050919050565b610b0381610ae9565b8114610b0d575f5ffd5b50565b5f81359050610b1e81610afa565b92915050565b5f60208284031215610b3957610b38610ae5565b5b5f610b4684828501610b10565b91505092915050565b5f610b5982610a7a565b9050919050565b5f610b6a82610b4f565b9050919050565b610b7a81610b60565b82525050565b5f602082019050610b935f830184610b71565b92915050565b5f610ba382610a9b565b9050919050565b610bb381610b99565b82525050565b5f602082019050610bcc5f830184610baa565b92915050565b610bdb81610ae9565b82525050565b5f602082019050610bf45f830184610bd2565b92915050565b5f608082019050610c0d5f830187610bd2565b610c1a6020830186610bd2565b610c276040830185610bd2565b610c346060830184610bd2565b95945050505050565b5f610c4782610a9b565b9050919050565b610c5781610c3d565b82525050565b5f602082019050610c705f830184610c4e565b92915050565b5f82825260208201905092915050565b7f496e76616c6964206164647265737300000000000000000000000000000000005f82015250565b5f610cba600f83610c76565b9150610cc582610c86565b602082019050919050565b5f6020820190508181035f830152610ce781610cae565b905091905056fea26469706673582212203ae736b1edec1fec8bb86679ad4244bedbb3fb0be8aa9a6f6acbf222a3f54af464736f6c634300081e0033608060405234801561000f575f5ffd5b50335f73ffffffffffffffffffffffffffffffffffffffff168173ffffffffffffffffffffffffffffffffffffffff1603610081575f6040517f1e4fbdf70000000000000000000000000000000000000000000000000000000081526004016100789190610196565b60405180910390fd5b6100908161009660201b60201c565b506101af565b5f5f5f9054906101000a900473ffffffffffffffffffffffffffffffffffffffff169050815f5f6101000a81548173ffffffffffffffffffffffffffffffffffffffff021916908373ffffffffffffffffffffffffffffffffffffffff1602179055508173ffffffffffffffffffffffffffffffffffffffff168173ffffffffffffffffffffffffffffffffffffffff167f8be0079c531659141344cd1fd0a4f28419497f9722a3daafe3b4186f6b6457e060405160405180910390a35050565b5f73ffffffffffffffffffffffffffffffffffffffff82169050919050565b5f61018082610157565b9050919050565b61019081610176565b82525050565b5f6020820190506101a95f830184610187565b92915050565b611619806101bc5f395ff3fe608060405234801561000f575f5ffd5b50600436106100a6575f3560e01c8063a6fa15421161006f578063a6fa15421461013a578063a87430ba1461016a578063c3c5a5471461019d578063d29bcc5c146101cd578063efd46065146101e9578063f2fde38b14610219576100a6565b80629299e3146100aa57806327820851146100c6578063715018a6146100f657806383378e66146101005780638da5cb5b1461011c575b5f5ffd5b6100c460048036038101906100bf9190610c7f565b610235565b005b6100e060048036038101906100db9190610d24565b610365565b6040516100ed9190610dc2565b60405180910390f35b6100fe6103b9565b005b61011a60048036038101906101159190610d24565b6103cc565b005b6101246105b7565b6040516101319190610dea565b60405180910390f35b610154600480360381019061014f9190610d24565b6105de565b6040516101619190610dea565b60405180910390f35b610184600480360381019061017f9190610d24565b61060e565b6040516101949493929190610ea5565b60405180910390f35b6101b760048036038101906101b29190610d24565b6106d8565b6040516101c49190610eef565b60405180910390f35b6101e760048036038101906101e29190610f2b565b61072d565b005b61020360048036038101906101fe9190610d24565b6109c9565b6040516102109190610eef565b60405180910390f35b610233600480360381019061022e9190610d24565b610a43565b005b60015f3373ffffffffffffffffffffffffffffffffffffffff1673ffffffffffffffffffffffffffffffffffffffff1681526020019081526020015f205f0160019054906101000a900460ff166102c1576040517f08c379a00000000000000000000000000000000000000000000000000000000081526004016102b890610fd2565b60405180910390fd5b818160015f3373ffffffffffffffffffffffffffffffffffffffff1673ffffffffffffffffffffffffffffffffffffffff1681526020019081526020015f206002019182610310929190611224565b503373ffffffffffffffffffffffffffffffffffffffff167fdd635a4cd84864e37e4479dbfc2ec667acfa473c83c8422a8ac9d9d07599b01c838360405161035992919061132b565b60405180910390a25050565b5f60015f8373ffffffffffffffffffffffffffffffffffffffff1673ffffffffffffffffffffffffffffffffffffffff1681526020019081526020015f205f015f9054906101000a900460ff169050919050565b6103c1610ac7565b6103ca5f610b4e565b565b6002808111156103df576103de610d4f565b5b60015f3373ffffffffffffffffffffffffffffffffffffffff1673ffffffffffffffffffffffffffffffffffffffff1681526020019081526020015f205f015f9054906101000a900460ff16600281111561043d5761043c610d4f565b5b1461047d576040517f08c379a000000000000000000000000000000000000000000000000000000000815260040161047490611397565b60405180910390fd5b5f73ffffffffffffffffffffffffffffffffffffffff168173ffffffffffffffffffffffffffffffffffffffff16036104eb576040517f08c379a00000000000000000000000000000000000000000000000000000000081526004016104e2906113ff565b60405180910390fd5b8060025f3373ffffffffffffffffffffffffffffffffffffffff1673ffffffffffffffffffffffffffffffffffffffff1681526020019081526020015f205f6101000a81548173ffffffffffffffffffffffffffffffffffffffff021916908373ffffffffffffffffffffffffffffffffffffffff1602179055503373ffffffffffffffffffffffffffffffffffffffff167f9168d270106b8f2fe3d54fd51b4a2f882033ac8128e53813400fe169d3e31160826040516105ac9190610dea565b60405180910390a250565b5f5f5f9054906101000a900473ffffffffffffffffffffffffffffffffffffffff16905090565b6002602052805f5260405f205f915054906101000a900473ffffffffffffffffffffffffffffffffffffffff1681565b6001602052805f5260405f205f91509050805f015f9054906101000a900460ff1690805f0160019054906101000a900460ff169080600101549080600201805461065790611054565b80601f016020809104026020016040519081016040528092919081815260200182805461068390611054565b80156106ce5780601f106106a5576101008083540402835291602001916106ce565b820191905f5260205f20905b8154815290600101906020018083116106b157829003601f168201915b5050505050905084565b5f60015f8373ffffffffffffffffffffffffffffffffffffffff1673ffffffffffffffffffffffffffffffffffffffff1681526020019081526020015f205f0160019054906101000a900460ff169050919050565b60015f3373ffffffffffffffffffffffffffffffffffffffff1673ffffffffffffffffffffffffffffffffffffffff1681526020019081526020015f205f0160019054906101000a900460ff16156107ba576040517f08c379a00000000000000000000000000000000000000000000000000000000081526004016107b190611467565b60405180910390fd5b600160028111156107ce576107cd610d4f565b5b8360028111156107e1576107e0610d4f565b5b148061081057506002808111156107fb576107fa610d4f565b5b83600281111561080e5761080d610d4f565b5b145b61084f576040517f08c379a0000000000000000000000000000000000000000000000000000000008152600401610846906114cf565b60405180910390fd5b604051806080016040528084600281111561086d5761086c610d4f565b5b815260200160011515815260200142815260200183838080601f0160208091040260200160405190810160405280939291908181526020018383808284375f81840152601f19601f8201169050808301925050505050505081525060015f3373ffffffffffffffffffffffffffffffffffffffff1673ffffffffffffffffffffffffffffffffffffffff1681526020019081526020015f205f820151815f015f6101000a81548160ff0219169083600281111561092d5761092c610d4f565b5b02179055506020820151815f0160016101000a81548160ff02191690831515021790555060408201518160010155606082015181600201908161097091906114ed565b509050503373ffffffffffffffffffffffffffffffffffffffff167feea238307e4577ec1b8645d63505c2d57767cfc074bb5ab579a615525f07a25784426040516109bc9291906115bc565b60405180910390a2505050565b5f6002808111156109dd576109dc610d4f565b5b60015f8473ffffffffffffffffffffffffffffffffffffffff1673ffffffffffffffffffffffffffffffffffffffff1681526020019081526020015f205f015f9054906101000a900460ff166002811115610a3b57610a3a610d4f565b5b149050919050565b610a4b610ac7565b5f73ffffffffffffffffffffffffffffffffffffffff168173ffffffffffffffffffffffffffffffffffffffff1603610abb575f6040517f1e4fbdf7000000000000000000000000000000000000000000000000000000008152600401610ab29190610dea565b60405180910390fd5b610ac481610b4e565b50565b610acf610c0f565b73ffffffffffffffffffffffffffffffffffffffff16610aed6105b7565b73ffffffffffffffffffffffffffffffffffffffff1614610b4c57610b10610c0f565b6040517f118cdaa7000000000000000000000000000000000000000000000000000000008152600401610b439190610dea565b60405180910390fd5b565b5f5f5f9054906101000a900473ffffffffffffffffffffffffffffffffffffffff169050815f5f6101000a81548173ffffffffffffffffffffffffffffffffffffffff021916908373ffffffffffffffffffffffffffffffffffffffff1602179055508173ffffffffffffffffffffffffffffffffffffffff168173ffffffffffffffffffffffffffffffffffffffff167f8be0079c531659141344cd1fd0a4f28419497f9722a3daafe3b4186f6b6457e060405160405180910390a35050565b5f33905090565b5f5ffd5b5f5ffd5b5f5ffd5b5f5ffd5b5f5ffd5b5f5f83601f840112610c3f57610c3e610c1e565b5b8235905067ffffffffffffffff811115610c5c57610c5b610c22565b5b602083019150836001820283011115610c7857610c77610c26565b5b9250929050565b5f5f60208385031215610c9557610c94610c16565b5b5f83013567ffffffffffffffff811115610cb257610cb1610c1a565b5b610cbe85828601610c2a565b92509250509250929050565b5f73ffffffffffffffffffffffffffffffffffffffff82169050919050565b5f610cf382610cca565b9050919050565b610d0381610ce9565b8114610d0d575f5ffd5b50565b5f81359050610d1e81610cfa565b92915050565b5f60208284031215610d3957610d38610c16565b5b5f610d4684828501610d10565b91505092915050565b7f4e487b71000000000000000000000000000000000000000000000000000000005f52602160045260245ffd5b60038110610d8d57610d8c610d4f565b5b50565b5f819050610d9d82610d7c565b919050565b5f610dac82610d90565b9050919050565b610dbc81610da2565b82525050565b5f602082019050610dd55f830184610db3565b92915050565b610de481610ce9565b82525050565b5f602082019050610dfd5f830184610ddb565b92915050565b5f8115159050919050565b610e1781610e03565b82525050565b5f819050919050565b610e2f81610e1d565b82525050565b5f81519050919050565b5f82825260208201905092915050565b8281835e5f83830152505050565b5f601f19601f8301169050919050565b5f610e7782610e35565b610e818185610e3f565b9350610e91818560208601610e4f565b610e9a81610e5d565b840191505092915050565b5f608082019050610eb85f830187610db3565b610ec56020830186610e0e565b610ed26040830185610e26565b8181036060830152610ee48184610e6d565b905095945050505050565b5f602082019050610f025f830184610e0e565b92915050565b60038110610f14575f5ffd5b50565b5f81359050610f2581610f08565b92915050565b5f5f5f60408486031215610f4257610f41610c16565b5b5f610f4f86828701610f17565b935050602084013567ffffffffffffffff811115610f7057610f6f610c1a565b5b610f7c86828701610c2a565b92509250509250925092565b7f55736572206e6f742072656769737465726564000000000000000000000000005f82015250565b5f610fbc601383610e3f565b9150610fc782610f88565b602082019050919050565b5f6020820190508181035f830152610fe981610fb0565b9050919050565b5f82905092915050565b7f4e487b71000000000000000000000000000000000000000000000000000000005f52604160045260245ffd5b7f4e487b71000000000000000000000000000000000000000000000000000000005f52602260045260245ffd5b5f600282049050600182168061106b57607f821691505b60208210810361107e5761107d611027565b5b50919050565b5f819050815f5260205f209050919050565b5f6020601f8301049050919050565b5f82821b905092915050565b5f600883026110e07fffffffffffffffffffffffffffffffffffffffffffffffffffffffffffffffff826110a5565b6110ea86836110a5565b95508019841693508086168417925050509392505050565b5f819050919050565b5f61112561112061111b84610e1d565b611102565b610e1d565b9050919050565b5f819050919050565b61113e8361110b565b61115261114a8261112c565b8484546110b1565b825550505050565b5f5f905090565b61116961115a565b611174818484611135565b505050565b5b818110156111975761118c5f82611161565b60018101905061117a565b5050565b601f8211156111dc576111ad81611084565b6111b684611096565b810160208510156111c5578190505b6111d96111d185611096565b830182611179565b50505b505050565b5f82821c905092915050565b5f6111fc5f19846008026111e1565b1980831691505092915050565b5f61121483836111ed565b9150826002028217905092915050565b61122e8383610ff0565b67ffffffffffffffff81111561124757611246610ffa565b5b6112518254611054565b61125c82828561119b565b5f601f831160018114611289575f8415611277578287013590505b6112818582611209565b8655506112e8565b601f19841661129786611084565b5f5b828110156112be57848901358255600182019150602085019450602081019050611299565b868310156112db57848901356112d7601f8916826111ed565b8355505b6001600288020188555050505b50505050505050565b828183375f83830152505050565b5f61130a8385610e3f565b93506113178385846112f1565b61132083610e5d565b840190509392505050565b5f6020820190508181035f8301526113448184866112ff565b90509392505050565b7f4e6f7420612063726561746f72000000000000000000000000000000000000005f82015250565b5f611381600d83610e3f565b915061138c8261134d565b602082019050919050565b5f6020820190508181035f8301526113ae81611375565b9050919050565b7f496e76616c696420636f696e20616464726573730000000000000000000000005f82015250565b5f6113e9601483610e3f565b91506113f4826113b5565b602082019050919050565b5f6020820190508181035f830152611416816113dd565b9050919050565b7f416c7265616479207265676973746572656400000000000000000000000000005f82015250565b5f611451601283610e3f565b915061145c8261141d565b602082019050919050565b5f6020820190508181035f83015261147e81611445565b9050919050565b7f496e76616c696420726f6c6500000000000000000000000000000000000000005f82015250565b5f6114b9600c83610e3f565b91506114c482611485565b602082019050919050565b5f6020820190508181035f8301526114e6816114ad565b9050919050565b6114f682610e35565b67ffffffffffffffff81111561150f5761150e610ffa565b5b6115198254611054565b61152482828561119b565b5f60209050601f831160018114611555575f8415611543578287015190505b61154d8582611209565b8655506115b4565b601f19841661156386611084565b5f5b8281101561158a57848901518255600182019150602085019450602081019050611565565b868310156115a757848901516115a3601f8916826111ed565b8355505b6001600288020188555050505b505050505050565b5f6040820190506115cf5f830185610db3565b6115dc6020830184610e26565b939250505056fea26469706673582212204e0b312a1845ea86844b81196fafea31283caf67650bf1fc401a8034b237415564736f6c634300081e0033608060405234801561000f575f5ffd5b50604051612a71380380612a718339818101604052810190610031919061021e565b335f73ffffffffffffffffffffffffffffffffffffffff168173ffffffffffffffffffffffffffffffffffffffff16036100a2575f6040517f1e4fbdf70000000000000000000000000000000000000000000000000000000081526004016100999190610258565b60405180910390fd5b6100b1816100ff60201b60201c565b50600180819055508060025f6101000a81548173ffffffffffffffffffffffffffffffffffffffff021916908373ffffffffffffffffffffffffffffffffffffffff16021790555050610271565b5f5f5f9054906101000a900473ffffffffffffffffffffffffffffffffffffffff169050815f5f6101000a81548173ffffffffffffffffffffffffffffffffffffffff021916908373ffffffffffffffffffffffffffffffffffffffff1602179055508173ffffffffffffffffffffffffffffffffffffffff168173ffffffffffffffffffffffffffffffffffffffff167f8be0079c531659141344cd1fd0a4f28419497f9722a3daafe3b4186f6b6457e060405160405180910390a35050565b5f5ffd5b5f73ffffffffffffffffffffffffffffffffffffffff82169050919050565b5f6101ed826101c4565b9050919050565b6101fd816101e3565b8114610207575f5ffd5b50565b5f81519050610218816101f4565b92915050565b5f60208284031215610233576102326101c0565b5b5f6102408482850161020a565b91505092915050565b610252816101e3565b82525050565b5f60208201905061026b5f830184610249565b92915050565b6127f38061027e5f395ff3fe608060405234801561000f575f5ffd5b506004361061011f575f3560e01c8063b1dd9968116100ab578063d9e94d051161006f578063d9e94d0514610332578063ddc8af6114610362578063f2fde38b14610392578063f91e4b29146103ae578063fca604d7146103de5761011f565b8063b1dd99681461027e578063b4486b131461029a578063b5c89219146102b6578063b783b64f146102e6578063d279830c146103165761011f565b80635c7460d6116100f25780635c7460d6146101d7578063715018a6146101f557806376edca3d146101ff5780638da5cb5b1461022f57806394eb63bc1461024d5761011f565b80630759749e146101235780630d8d0e4314610154578063141961bc146101845780634297457a146101bb575b5f5ffd5b61013d60048036038101906101389190611794565b6103fc565b60405161014b9291906117e1565b60405180910390f35b61016e60048036038101906101699190611808565b610462565b60405161017b9190611872565b60405180910390f35b61019e6004803603810190610199919061188b565b6104d7565b6040516101b2989796959493929190611935565b60405180910390f35b6101d560048036038101906101d0919061188b565b610652565b005b6101df61076e565b6040516101ec9190611a1a565b60405180910390f35b6101fd610793565b005b61021960048036038101906102149190611a33565b6107a6565b6040516102269190611b15565b60405180910390f35b610237610839565b6040516102449190611b35565b60405180910390f35b61026760048036038101906102629190611794565b610860565b6040516102759291906117e1565b60405180910390f35b61029860048036038101906102939190611808565b61088b565b005b6102b460048036038101906102af9190611b4e565b610a78565b005b6102d060048036038101906102cb9190611bed565b610ea0565b6040516102dd9190611ca4565b60405180910390f35b61030060048036038101906102fb9190611cbd565b61118d565b60405161030d9190611ca4565b60405180910390f35b610330600480360381019061032b9190611cfb565b6111b8565b005b61034c60048036038101906103479190611a33565b61137c565b6040516103599190611b15565b60405180910390f35b61037c60048036038101906103779190611cbd565b61140f565b6040516103899190611ca4565b60405180910390f35b6103ac60048036038101906103a79190611a33565b61143a565b005b6103c860048036038101906103c3919061188b565b6114be565b6040516103d59190611e42565b60405180910390f35b6103e661155b565b6040516103f39190611ca4565b60405180910390f35b5f5f5f60055f8681526020019081526020015f205f8573ffffffffffffffffffffffffffffffffffffffff1673ffffffffffffffffffffffffffffffffffffffff1681526020019081526020015f209050805f0154816001015492509250509250929050565b5f60055f8581526020019081526020015f205f8473ffffffffffffffffffffffffffffffffffffffff1673ffffffffffffffffffffffffffffffffffffffff1681526020019081526020015f206002015f8381526020019081526020015f205f9054906101000a900460ff1690509392505050565b6004602052805f5260405f205f91509050805f015f9054906101000a900473ffffffffffffffffffffffffffffffffffffffff169080600101805461051b90611e8f565b80601f016020809104026020016040519081016040528092919081815260200182805461054790611e8f565b80156105925780601f1061056957610100808354040283529160200191610592565b820191905f5260205f20905b81548152906001019060200180831161057557829003601f168201915b5050505050908060020180546105a790611e8f565b80601f01602080910402602001604051908101604052809291908181526020018280546105d390611e8f565b801561061e5780601f106105f55761010080835404028352916020019161061e565b820191905f5260205f20905b81548152906001019060200180831161060157829003601f168201915b505050505090806003015490806004015490806005015f9054906101000a900460ff16908060060154908060070154905088565b5f60045f8381526020019081526020015f2090503373ffffffffffffffffffffffffffffffffffffffff16815f015f9054906101000a900473ffffffffffffffffffffffffffffffffffffffff1673ffffffffffffffffffffffffffffffffffffffff16146106f6576040517f08c379a00000000000000000000000000000000000000000000000000000000081526004016106ed90611f09565b60405180910390fd5b806005015f9054906101000a900460ff1615816005015f6101000a81548160ff021916908315150217905550817f33641491749634f1bb4cfb02728199b749f89fca34cc54faf7e74bbb84910885826005015f9054906101000a900460ff166040516107629190611872565b60405180910390a25050565b60025f9054906101000a900473ffffffffffffffffffffffffffffffffffffffff1681565b61079b611561565b6107a45f6115e8565b565b606060065f8373ffffffffffffffffffffffffffffffffffffffff1673ffffffffffffffffffffffffffffffffffffffff1681526020019081526020015f2080548060200260200160405190810160405280929190818152602001828054801561082d57602002820191905f5260205f20905b815481526020019060010190808311610819575b50505050509050919050565b5f5f5f9054906101000a900473ffffffffffffffffffffffffffffffffffffffff16905090565b6005602052815f5260405f20602052805f5260405f205f9150915050805f0154908060010154905082565b610893611561565b5f60045f8581526020019081526020015f209050806005015f9054906101000a900460ff166108f7576040517f08c379a00000000000000000000000000000000000000000000000000000000081526004016108ee90611f71565b60405180910390fd5b8060030154421015801561090f575080600401544211155b61094e576040517f08c379a000000000000000000000000000000000000000000000000000000000815260040161094590611fd9565b60405180910390fd5b5f60055f8681526020019081526020015f205f8573ffffffffffffffffffffffffffffffffffffffff1673ffffffffffffffffffffffffffffffffffffffff1681526020019081526020015f2090505f815f015403610a095760075f8573ffffffffffffffffffffffffffffffffffffffff1673ffffffffffffffffffffffffffffffffffffffff1681526020019081526020015f2085908060018154018082558091505060019003905f5260205f20015f90919091909150555b82815f015f828254610a1b9190612024565b925050819055508373ffffffffffffffffffffffffffffffffffffffff16857f0dbadce3c07b5bc30ebbe2bcec3d6bb95f9b3a0bb33178ff0d61e4d7d433991585604051610a699190611ca4565b60405180910390a35050505050565b610a806116a9565b5f60045f8481526020019081526020015f209050806005015f9054906101000a900460ff16610ae4576040517f08c379a0000000000000000000000000000000000000000000000000000000008152600401610adb90611f71565b60405180910390fd5b5f60055f8581526020019081526020015f205f3373ffffffffffffffffffffffffffffffffffffffff1673ffffffffffffffffffffffffffffffffffffffff1681526020019081526020015f209050806002015f8481526020019081526020015f205f9054906101000a900460ff1615610b93576040517f08c379a0000000000000000000000000000000000000000000000000000000008152600401610b8a906120a1565b60405180910390fd5b5f826008018481548110610baa57610ba96120bf565b5b905f5260205f2090600302019050806002015f9054906101000a900460ff16610c08576040517f08c379a0000000000000000000000000000000000000000000000000000000008152600401610bff90612136565b60405180910390fd5b805f0154825f01541015610c51576040517f08c379a0000000000000000000000000000000000000000000000000000000008152600401610c489061219e565b60405180910390fd5b6001826002015f8681526020019081526020015f205f6101000a81548160ff0219169083151502179055504282600101819055508060010154836007015f828254610c9c9190612024565b925050819055505f60025f9054906101000a900473ffffffffffffffffffffffffffffffffffffffff1673ffffffffffffffffffffffffffffffffffffffff1663a6fa1542855f015f9054906101000a900473ffffffffffffffffffffffffffffffffffffffff166040518263ffffffff1660e01b8152600401610d209190611b35565b602060405180830381865afa158015610d3b573d5f5f3e3d5ffd5b505050506040513d601f19601f82011682018060405250810190610d5f91906121d0565b90505f73ffffffffffffffffffffffffffffffffffffffff168173ffffffffffffffffffffffffffffffffffffffff1603610dcf576040517f08c379a0000000000000000000000000000000000000000000000000000000008152600401610dc690612245565b60405180910390fd5b8073ffffffffffffffffffffffffffffffffffffffff166340c10f193384600101546040518363ffffffff1660e01b8152600401610e0e929190612263565b5f604051808303815f87803b158015610e25575f5ffd5b505af1158015610e37573d5f5f3e3d5ffd5b505050503373ffffffffffffffffffffffffffffffffffffffff16867ffc6ecd966b430510beae9124efe7dd517ed5286d7ed0ae258f8556c7a9765a44878560010154604051610e889291906117e1565b60405180910390a350505050610e9c6116ef565b5050565b5f60025f9054906101000a900473ffffffffffffffffffffffffffffffffffffffff1673ffffffffffffffffffffffffffffffffffffffff1663efd46065336040518263ffffffff1660e01b8152600401610efb9190611b35565b602060405180830381865afa158015610f16573d5f5f3e3d5ffd5b505050506040513d601f19601f82011682018060405250810190610f3a91906122b4565b610f79576040517f08c379a0000000000000000000000000000000000000000000000000000000008152600401610f7090612329565b60405180910390fd5b838311610fbb576040517f08c379a0000000000000000000000000000000000000000000000000000000008152600401610fb290612391565b60405180910390fd5b42841015610ffe576040517f08c379a0000000000000000000000000000000000000000000000000000000008152600401610ff5906123f9565b60405180910390fd5b5f60035f81548092919061101190612417565b9190505590505f60045f8381526020019081526020015f20905033815f015f6101000a81548173ffffffffffffffffffffffffffffffffffffffff021916908373ffffffffffffffffffffffffffffffffffffffff160217905550898982600101918261107f92919061262c565b50878782600201918261109392919061262c565b508581600301819055508481600401819055506001816005015f6101000a81548160ff02191690831515021790555083816006018190555060065f3373ffffffffffffffffffffffffffffffffffffffff1673ffffffffffffffffffffffffffffffffffffffff1681526020019081526020015f2082908060018154018082558091505060019003905f5260205f20015f90919091909150553373ffffffffffffffffffffffffffffffffffffffff16827fc04c663886cae794dc52158f70fe6c8ee3b0140d4f48647282f9b693ff688a658c8c604051611175929190612733565b60405180910390a38192505050979650505050505050565b6007602052815f5260405f2081815481106111a6575f80fd5b905f5260205f20015f91509150505481565b5f60045f8581526020019081526020015f2090503373ffffffffffffffffffffffffffffffffffffffff16815f015f9054906101000a900473ffffffffffffffffffffffffffffffffffffffff1673ffffffffffffffffffffffffffffffffffffffff161461125c576040517f08c379a000000000000000000000000000000000000000000000000000000000815260040161125390611f09565b60405180910390fd5b806005015f9054906101000a900460ff166112ac576040517f08c379a00000000000000000000000000000000000000000000000000000000081526004016112a390611f71565b60405180910390fd5b80600801604051806060016040528085815260200184815260200160011515815250908060018154018082558091505060019003905f5260205f2090600302015f909190919091505f820151815f0155602082015181600101556040820151816002015f6101000a81548160ff0219169083151502179055505050837f12611a834b70202d87a0d14a8a1bf8920b2827efff429dfa9c08f62b6096e3c46001836008018054905061135d9190612755565b858560405161136e93929190612788565b60405180910390a250505050565b606060075f8373ffffffffffffffffffffffffffffffffffffffff1673ffffffffffffffffffffffffffffffffffffffff1681526020019081526020015f2080548060200260200160405190810160405280929190818152602001828054801561140357602002820191905f5260205f20905b8154815260200190600101908083116113ef575b50505050509050919050565b6006602052815f5260405f208181548110611428575f80fd5b905f5260205f20015f91509150505481565b611442611561565b5f73ffffffffffffffffffffffffffffffffffffffff168173ffffffffffffffffffffffffffffffffffffffff16036114b2575f6040517f1e4fbdf70000000000000000000000000000000000000000000000000000000081526004016114a99190611b35565b60405180910390fd5b6114bb816115e8565b50565b606060045f8381526020019081526020015f20600801805480602002602001604051908101604052809291908181526020015f905b82821015611550578382905f5260205f2090600302016040518060600160405290815f820154815260200160018201548152602001600282015f9054906101000a900460ff161515151581525050815260200190600101906114f3565b505050509050919050565b60035481565b6115696116f8565b73ffffffffffffffffffffffffffffffffffffffff16611587610839565b73ffffffffffffffffffffffffffffffffffffffff16146115e6576115aa6116f8565b6040517f118cdaa70000000000000000000000000000000000000000000000000000000081526004016115dd9190611b35565b60405180910390fd5b565b5f5f5f9054906101000a900473ffffffffffffffffffffffffffffffffffffffff169050815f5f6101000a81548173ffffffffffffffffffffffffffffffffffffffff021916908373ffffffffffffffffffffffffffffffffffffffff1602179055508173ffffffffffffffffffffffffffffffffffffffff168173ffffffffffffffffffffffffffffffffffffffff167f8be0079c531659141344cd1fd0a4f28419497f9722a3daafe3b4186f6b6457e060405160405180910390a35050565b6002600154036116e5576040517f3ee5aeb500000000000000000000000000000000000000000000000000000000815260040160405180910390fd5b6002600181905550565b60018081905550565b5f33905090565b5f5ffd5b5f5ffd5b5f819050919050565b61171981611707565b8114611723575f5ffd5b50565b5f8135905061173481611710565b92915050565b5f73ffffffffffffffffffffffffffffffffffffffff82169050919050565b5f6117638261173a565b9050919050565b61177381611759565b811461177d575f5ffd5b50565b5f8135905061178e8161176a565b92915050565b5f5f604083850312156117aa576117a96116ff565b5b5f6117b785828601611726565b92505060206117c885828601611780565b9150509250929050565b6117db81611707565b82525050565b5f6040820190506117f45f8301856117d2565b61180160208301846117d2565b9392505050565b5f5f5f6060848603121561181f5761181e6116ff565b5b5f61182c86828701611726565b935050602061183d86828701611780565b925050604061184e86828701611726565b9150509250925092565b5f8115159050919050565b61186c81611858565b82525050565b5f6020820190506118855f830184611863565b92915050565b5f602082840312156118a05761189f6116ff565b5b5f6118ad84828501611726565b91505092915050565b6118bf81611759565b82525050565b5f81519050919050565b5f82825260208201905092915050565b8281835e5f83830152505050565b5f601f19601f8301169050919050565b5f611907826118c5565b61191181856118cf565b93506119218185602086016118df565b61192a816118ed565b840191505092915050565b5f610100820190506119495f83018b6118b6565b818103602083015261195b818a6118fd565b9050818103604083015261196f81896118fd565b905061197e60608301886117d2565b61198b60808301876117d2565b61199860a0830186611863565b6119a560c08301856117d2565b6119b260e08301846117d2565b9998505050505050505050565b5f819050919050565b5f6119e26119dd6119d88461173a565b6119bf565b61173a565b9050919050565b5f6119f3826119c8565b9050919050565b5f611a04826119e9565b9050919050565b611a14816119fa565b82525050565b5f602082019050611a2d5f830184611a0b565b92915050565b5f60208284031215611a4857611a476116ff565b5b5f611a5584828501611780565b91505092915050565b5f81519050919050565b5f82825260208201905092915050565b5f819050602082019050919050565b611a9081611707565b82525050565b5f611aa18383611a87565b60208301905092915050565b5f602082019050919050565b5f611ac382611a5e565b611acd8185611a68565b9350611ad883611a78565b805f5b83811015611b08578151611aef8882611a96565b9750611afa83611aad565b925050600181019050611adb565b5085935050505092915050565b5f6020820190508181035f830152611b2d8184611ab9565b905092915050565b5f602082019050611b485f8301846118b6565b92915050565b5f5f60408385031215611b6457611b636116ff565b5b5f611b7185828601611726565b9250506020611b8285828601611726565b9150509250929050565b5f5ffd5b5f5ffd5b5f5ffd5b5f5f83601f840112611bad57611bac611b8c565b5b8235905067ffffffffffffffff811115611bca57611bc9611b90565b5b602083019150836001820283011115611be657611be5611b94565b5b9250929050565b5f5f5f5f5f5f5f60a0888a031215611c0857611c076116ff565b5b5f88013567ffffffffffffffff811115611c2557611c24611703565b5b611c318a828b01611b98565b9750975050602088013567ffffffffffffffff811115611c5457611c53611703565b5b611c608a828b01611b98565b95509550506040611c738a828b01611726565b9350506060611c848a828b01611726565b9250506080611c958a828b01611726565b91505092959891949750929550565b5f602082019050611cb75f8301846117d2565b92915050565b5f5f60408385031215611cd357611cd26116ff565b5b5f611ce085828601611780565b9250506020611cf185828601611726565b9150509250929050565b5f5f5f60608486031215611d1257611d116116ff565b5b5f611d1f86828701611726565b9350506020611d3086828701611726565b9250506040611d4186828701611726565b9150509250925092565b5f81519050919050565b5f82825260208201905092915050565b5f819050602082019050919050565b611d7d81611858565b82525050565b606082015f820151611d975f850182611a87565b506020820151611daa6020850182611a87565b506040820151611dbd6040850182611d74565b50505050565b5f611dce8383611d83565b60608301905092915050565b5f602082019050919050565b5f611df082611d4b565b611dfa8185611d55565b9350611e0583611d65565b805f5b83811015611e35578151611e1c8882611dc3565b9750611e2783611dda565b925050600181019050611e08565b5085935050505092915050565b5f6020820190508181035f830152611e5a8184611de6565b905092915050565b7f4e487b71000000000000000000000000000000000000000000000000000000005f52602260045260245ffd5b5f6002820490506001821680611ea657607f821691505b602082108103611eb957611eb8611e62565b5b50919050565b7f4e6f742063616d706169676e2063726561746f720000000000000000000000005f82015250565b5f611ef36014836118cf565b9150611efe82611ebf565b602082019050919050565b5f6020820190508181035f830152611f2081611ee7565b9050919050565b7f43616d706169676e206e6f7420616374697665000000000000000000000000005f82015250565b5f611f5b6013836118cf565b9150611f6682611f27565b602082019050919050565b5f6020820190508181035f830152611f8881611f4f565b9050919050565b7f4e6f742072756e6e696e670000000000000000000000000000000000000000005f82015250565b5f611fc3600b836118cf565b9150611fce82611f8f565b602082019050919050565b5f6020820190508181035f830152611ff081611fb7565b9050919050565b7f4e487b71000000000000000000000000000000000000000000000000000000005f52601160045260245ffd5b5f61202e82611707565b915061203983611707565b925082820190508082111561205157612050611ff7565b5b92915050565b7f416c726561647920636c61696d656400000000000000000000000000000000005f82015250565b5f61208b600f836118cf565b915061209682612057565b602082019050919050565b5f6020820190508181035f8301526120b88161207f565b9050919050565b7f4e487b71000000000000000000000000000000000000000000000000000000005f52603260045260245ffd5b7f4d696c6573746f6e65206e6f74206163746976650000000000000000000000005f82015250565b5f6121206014836118cf565b915061212b826120ec565b602082019050919050565b5f6020820190508181035f83015261214d81612114565b9050919050565b7f496e73756666696369656e7420706f696e7473000000000000000000000000005f82015250565b5f6121886013836118cf565b915061219382612154565b602082019050919050565b5f6020820190508181035f8301526121b58161217c565b9050919050565b5f815190506121ca8161176a565b92915050565b5f602082840312156121e5576121e46116ff565b5b5f6121f2848285016121bc565b91505092915050565b7f43726561746f7220636f696e206e6f74207365740000000000000000000000005f82015250565b5f61222f6014836118cf565b915061223a826121fb565b602082019050919050565b5f6020820190508181035f83015261225c81612223565b9050919050565b5f6040820190506122765f8301856118b6565b61228360208301846117d2565b9392505050565b61229381611858565b811461229d575f5ffd5b50565b5f815190506122ae8161228a565b92915050565b5f602082840312156122c9576122c86116ff565b5b5f6122d6848285016122a0565b91505092915050565b7f4e6f7420612063726561746f72000000000000000000000000000000000000005f82015250565b5f612313600d836118cf565b915061231e826122df565b602082019050919050565b5f6020820190508181035f83015261234081612307565b9050919050565b7f496e76616c69642074696d652072616e676500000000000000000000000000005f82015250565b5f61237b6012836118cf565b915061238682612347565b602082019050919050565b5f6020820190508181035f8301526123a88161236f565b9050919050565b7f53746172742074696d6520696e207061737400000000000000000000000000005f82015250565b5f6123e36012836118cf565b91506123ee826123af565b602082019050919050565b5f6020820190508181035f830152612410816123d7565b9050919050565b5f61242182611707565b91507fffffffffffffffffffffffffffffffffffffffffffffffffffffffffffffffff820361245357612452611ff7565b5b600182019050919050565b5f82905092915050565b7f4e487b71000000000000000000000000000000000000000000000000000000005f52604160045260245ffd5b5f819050815f5260205f209050919050565b5f6020601f8301049050919050565b5f82821b905092915050565b5f600883026124f17fffffffffffffffffffffffffffffffffffffffffffffffffffffffffffffffff826124b6565b6124fb86836124b6565b95508019841693508086168417925050509392505050565b5f61252d61252861252384611707565b6119bf565b611707565b9050919050565b5f819050919050565b61254683612513565b61255a61255282612534565b8484546124c2565b825550505050565b5f5f905090565b612571612562565b61257c81848461253d565b505050565b5b8181101561259f576125945f82612569565b600181019050612582565b5050565b601f8211156125e4576125b581612495565b6125be846124a7565b810160208510156125cd578190505b6125e16125d9856124a7565b830182612581565b50505b505050565b5f82821c905092915050565b5f6126045f19846008026125e9565b1980831691505092915050565b5f61261c83836125f5565b9150826002028217905092915050565b612636838361245e565b67ffffffffffffffff81111561264f5761264e612468565b5b6126598254611e8f565b6126648282856125a3565b5f601f831160018114612691575f841561267f578287013590505b6126898582612611565b8655506126f0565b601f19841661269f86612495565b5f5b828110156126c6578489013582556001820191506020850194506020810190506126a1565b868310156126e357848901356126df601f8916826125f5565b8355505b6001600288020188555050505b50505050505050565b828183375f83830152505050565b5f61271283856118cf565b935061271f8385846126f9565b612728836118ed565b840190509392505050565b5f6020820190508181035f83015261274c818486612707565b90509392505050565b5f61275f82611707565b915061276a83611707565b925082820390508181111561278257612781611ff7565b5b92915050565b5f60608201905061279b5f8301866117d2565b6127a860208301856117d2565b6127b560408301846117d2565b94935050505056fea26469706673582212202e4ea1c2be8e18b2d02c5f0f357c7252d143529be9f881ef6f6ed5c59dd4e1eb64736f6c634300081e0033608060405234801561000f575f5ffd5b50604051611d31380380611d3183398181016040528101906100319190610217565b335f73ffffffffffffffffffffffffffffffffffffffff168173ffffffffffffffffffffffffffffffffffffffff16036100a2575f6040517f1e4fbdf70000000000000000000000000000000000000000000000000000000081526004016100999190610251565b60405180910390fd5b6100b1816100f860201b60201c565b508060015f6101000a81548173ffffffffffffffffffffffffffffffffffffffff021916908373ffffffffffffffffffffffffffffffffffffffff1602179055505061026a565b5f5f5f9054906101000a900473ffffffffffffffffffffffffffffffffffffffff169050815f5f6101000a81548173ffffffffffffffffffffffffffffffffffffffff021916908373ffffffffffffffffffffffffffffffffffffffff1602179055508173ffffffffffffffffffffffffffffffffffffffff168173ffffffffffffffffffffffffffffffffffffffff167f8be0079c531659141344cd1fd0a4f28419497f9722a3daafe3b4186f6b6457e060405160405180910390a35050565b5f5ffd5b5f73ffffffffffffffffffffffffffffffffffffffff82169050919050565b5f6101e6826101bd565b9050919050565b6101f6816101dc565b8114610200575f5ffd5b50565b5f81519050610211816101ed565b92915050565b5f6020828403121561022c5761022b6101b9565b5b5f61023984828501610203565b91505092915050565b61024b816101dc565b82525050565b5f6020820190506102645f830184610242565b92915050565b611aba806102775f395ff3fe608060405234801561000f575f5ffd5b506004361061009c575f3560e01c8063a7934dc011610064578063a7934dc014610146578063c6530e4114610176578063d82c94a1146101a6578063f2fde38b146101c2578063f5d6afd7146101de5761009c565b80630ecd9a6d146100a05780631bbfbb57146100d05780635c7460d614610100578063715018a61461011e5780638da5cb5b14610128575b5f5ffd5b6100ba60048036038101906100b59190610f29565b610212565b6040516100c7919061112b565b60405180910390f35b6100ea60048036038101906100e59190611175565b6103f8565b6040516100f791906111d4565b60405180910390f35b610108610632565b6040516101159190611248565b60405180910390f35b610126610657565b005b61013061066a565b60405161013d9190611270565b60405180910390f35b610160600480360381019061015b91906112ea565b610691565b60405161016d919061139c565b60405180910390f35b610190600480360381019061018b91906113b5565b610993565b60405161019d91906111d4565b60405180910390f35b6101c060048036038101906101bb919061141d565b6109bd565b005b6101dc60048036038101906101d79190610f29565b610b90565b005b6101f860048036038101906101f391906113b5565b610c14565b6040516102099594939291906114a3565b60405180910390f35b606060025f8373ffffffffffffffffffffffffffffffffffffffff1673ffffffffffffffffffffffffffffffffffffffff1681526020019081526020015f20805480602002602001604051908101604052809291908181526020015f905b828210156103ed578382905f5260205f2090600502016040518060a00160405290815f820180546102a09061152f565b80601f01602080910402602001604051908101604052809291908181526020018280546102cc9061152f565b80156103175780601f106102ee57610100808354040283529160200191610317565b820191905f5260205f20905b8154815290600101906020018083116102fa57829003601f168201915b505050505081526020016001820154815260200160028201548152602001600382015f9054906101000a900460ff1615151515815260200160048201805461035e9061152f565b80601f016020809104026020016040519081016040528092919081815260200182805461038a9061152f565b80156103d55780601f106103ac576101008083540402835291602001916103d5565b820191905f5260205f20905b8154815290600101906020018083116103b857829003601f168201915b50505050508152505081526020019060010190610270565b505050509050919050565b5f5f60025f8673ffffffffffffffffffffffffffffffffffffffff1673ffffffffffffffffffffffffffffffffffffffff1681526020019081526020015f2090508080549050831061047f576040517f08c379a0000000000000000000000000000000000000000000000000000000008152600401610476906115a9565b60405180910390fd5b5f818481548110610493576104926115c7565b5b905f5260205f2090600502019050806003015f9054906101000a900460ff166104c0575f9250505061062b565b5f60015f9054906101000a900473ffffffffffffffffffffffffffffffffffffffff1673ffffffffffffffffffffffffffffffffffffffff1663a6fa1542886040518263ffffffff1660e01b815260040161051b9190611270565b602060405180830381865afa158015610536573d5f5f3e3d5ffd5b505050506040513d601f19601f8201168201806040525081019061055a9190611608565b90505f73ffffffffffffffffffffffffffffffffffffffff168173ffffffffffffffffffffffffffffffffffffffff1614610624575f8173ffffffffffffffffffffffffffffffffffffffff166370a08231886040518263ffffffff1660e01b81526004016105c99190611270565b602060405180830381865afa1580156105e4573d5f5f3e3d5ffd5b505050506040513d601f19601f820116820180604052508101906106089190611647565b90508260010154811061062257600194505050505061062b565b505b5f93505050505b9392505050565b60015f9054906101000a900473ffffffffffffffffffffffffffffffffffffffff1681565b61065f610d78565b6106685f610dff565b565b5f5f5f9054906101000a900473ffffffffffffffffffffffffffffffffffffffff16905090565b5f60015f9054906101000a900473ffffffffffffffffffffffffffffffffffffffff1673ffffffffffffffffffffffffffffffffffffffff1663efd46065336040518263ffffffff1660e01b81526004016106ec9190611270565b602060405180830381865afa158015610707573d5f5f3e3d5ffd5b505050506040513d601f19601f8201168201806040525081019061072b9190611686565b61076a576040517f08c379a0000000000000000000000000000000000000000000000000000000008152600401610761906116fb565b60405180910390fd5b5f6040518060a0016040528089898080601f0160208091040260200160405190810160405280939291908181526020018383808284375f81840152601f19601f82011690508083019250505050505050815260200187815260200186815260200160011515815260200185858080601f0160208091040260200160405190810160405280939291908181526020018383808284375f81840152601f19601f82011690508083019250505050505050815250905060025f3373ffffffffffffffffffffffffffffffffffffffff1673ffffffffffffffffffffffffffffffffffffffff1681526020019081526020015f2081908060018154018082558091505060019003905f5260205f2090600502015f909190919091505f820151815f01908161089491906118dd565b5060208201518160010155604082015181600201556060820151816003015f6101000a81548160ff02191690831515021790555060808201518160040190816108dd91906118dd565b5050505f600160025f3373ffffffffffffffffffffffffffffffffffffffff1673ffffffffffffffffffffffffffffffffffffffff1681526020019081526020015f208054905061092e91906119d9565b90503373ffffffffffffffffffffffffffffffffffffffff167f9082c6b0923002dbacab8563879058953593a8041b7b39621cb013b006ad0bd7828b8b8b60405161097c9493929190611a46565b60405180910390a280925050509695505050505050565b6003602052815f5260405f20602052805f5260405f205f915091509054906101000a900460ff1681565b60015f9054906101000a900473ffffffffffffffffffffffffffffffffffffffff1673ffffffffffffffffffffffffffffffffffffffff1663efd46065336040518263ffffffff1660e01b8152600401610a179190611270565b602060405180830381865afa158015610a32573d5f5f3e3d5ffd5b505050506040513d601f19601f82011682018060405250810190610a569190611686565b610a95576040517f08c379a0000000000000000000000000000000000000000000000000000000008152600401610a8c906116fb565b60405180910390fd5b60025f3373ffffffffffffffffffffffffffffffffffffffff1673ffffffffffffffffffffffffffffffffffffffff1681526020019081526020015f20805490508210610b17576040517f08c379a0000000000000000000000000000000000000000000000000000000008152600401610b0e906115a9565b60405180910390fd5b8060025f3373ffffffffffffffffffffffffffffffffffffffff1673ffffffffffffffffffffffffffffffffffffffff1681526020019081526020015f208381548110610b6757610b666115c7565b5b905f5260205f2090600502016003015f6101000a81548160ff0219169083151502179055505050565b610b98610d78565b5f73ffffffffffffffffffffffffffffffffffffffff168173ffffffffffffffffffffffffffffffffffffffff1603610c08575f6040517f1e4fbdf7000000000000000000000000000000000000000000000000000000008152600401610bff9190611270565b60405180910390fd5b610c1181610dff565b50565b6002602052815f5260405f208181548110610c2d575f80fd5b905f5260205f2090600502015f9150915050805f018054610c4d9061152f565b80601f0160208091040260200160405190810160405280929190818152602001828054610c799061152f565b8015610cc45780601f10610c9b57610100808354040283529160200191610cc4565b820191905f5260205f20905b815481529060010190602001808311610ca757829003601f168201915b505050505090806001015490806002015490806003015f9054906101000a900460ff1690806004018054610cf79061152f565b80601f0160208091040260200160405190810160405280929190818152602001828054610d239061152f565b8015610d6e5780601f10610d4557610100808354040283529160200191610d6e565b820191905f5260205f20905b815481529060010190602001808311610d5157829003601f168201915b5050505050905085565b610d80610ec0565b73ffffffffffffffffffffffffffffffffffffffff16610d9e61066a565b73ffffffffffffffffffffffffffffffffffffffff1614610dfd57610dc1610ec0565b6040517f118cdaa7000000000000000000000000000000000000000000000000000000008152600401610df49190611270565b60405180910390fd5b565b5f5f5f9054906101000a900473ffffffffffffffffffffffffffffffffffffffff169050815f5f6101000a81548173ffffffffffffffffffffffffffffffffffffffff021916908373ffffffffffffffffffffffffffffffffffffffff1602179055508173ffffffffffffffffffffffffffffffffffffffff168173ffffffffffffffffffffffffffffffffffffffff167f8be0079c531659141344cd1fd0a4f28419497f9722a3daafe3b4186f6b6457e060405160405180910390a35050565b5f33905090565b5f5ffd5b5f5ffd5b5f73ffffffffffffffffffffffffffffffffffffffff82169050919050565b5f610ef882610ecf565b9050919050565b610f0881610eee565b8114610f12575f5ffd5b50565b5f81359050610f2381610eff565b92915050565b5f60208284031215610f3e57610f3d610ec7565b5b5f610f4b84828501610f15565b91505092915050565b5f81519050919050565b5f82825260208201905092915050565b5f819050602082019050919050565b5f81519050919050565b5f82825260208201905092915050565b8281835e5f83830152505050565b5f601f19601f8301169050919050565b5f610fbf82610f7d565b610fc98185610f87565b9350610fd9818560208601610f97565b610fe281610fa5565b840191505092915050565b5f819050919050565b610fff81610fed565b82525050565b5f8115159050919050565b61101981611005565b82525050565b5f60a083015f8301518482035f8601526110398282610fb5565b915050602083015161104e6020860182610ff6565b5060408301516110616040860182610ff6565b5060608301516110746060860182611010565b506080830151848203608086015261108c8282610fb5565b9150508091505092915050565b5f6110a4838361101f565b905092915050565b5f602082019050919050565b5f6110c282610f54565b6110cc8185610f5e565b9350836020820285016110de85610f6e565b805f5b8581101561111957848403895281516110fa8582611099565b9450611105836110ac565b925060208a019950506001810190506110e1565b50829750879550505050505092915050565b5f6020820190508181035f83015261114381846110b8565b905092915050565b61115481610fed565b811461115e575f5ffd5b50565b5f8135905061116f8161114b565b92915050565b5f5f5f6060848603121561118c5761118b610ec7565b5b5f61119986828701610f15565b93505060206111aa86828701610f15565b92505060406111bb86828701611161565b9150509250925092565b6111ce81611005565b82525050565b5f6020820190506111e75f8301846111c5565b92915050565b5f819050919050565b5f61121061120b61120684610ecf565b6111ed565b610ecf565b9050919050565b5f611221826111f6565b9050919050565b5f61123282611217565b9050919050565b61124281611228565b82525050565b5f60208201905061125b5f830184611239565b92915050565b61126a81610eee565b82525050565b5f6020820190506112835f830184611261565b92915050565b5f5ffd5b5f5ffd5b5f5ffd5b5f5f83601f8401126112aa576112a9611289565b5b8235905067ffffffffffffffff8111156112c7576112c661128d565b5b6020830191508360018202830111156112e3576112e2611291565b5b9250929050565b5f5f5f5f5f5f6080878903121561130457611303610ec7565b5b5f87013567ffffffffffffffff81111561132157611320610ecb565b5b61132d89828a01611295565b9650965050602061134089828a01611161565b945050604061135189828a01611161565b935050606087013567ffffffffffffffff81111561137257611371610ecb565b5b61137e89828a01611295565b92509250509295509295509295565b61139681610fed565b82525050565b5f6020820190506113af5f83018461138d565b92915050565b5f5f604083850312156113cb576113ca610ec7565b5b5f6113d885828601610f15565b92505060206113e985828601611161565b9150509250929050565b6113fc81611005565b8114611406575f5ffd5b50565b5f81359050611417816113f3565b92915050565b5f5f6040838503121561143357611432610ec7565b5b5f61144085828601611161565b925050602061145185828601611409565b9150509250929050565b5f82825260208201905092915050565b5f61147582610f7d565b61147f818561145b565b935061148f818560208601610f97565b61149881610fa5565b840191505092915050565b5f60a0820190508181035f8301526114bb818861146b565b90506114ca602083018761138d565b6114d7604083018661138d565b6114e460608301856111c5565b81810360808301526114f6818461146b565b90509695505050505050565b7f4e487b71000000000000000000000000000000000000000000000000000000005f52602260045260245ffd5b5f600282049050600182168061154657607f821691505b60208210810361155957611558611502565b5b50919050565b7f496e76616c6964207469657200000000000000000000000000000000000000005f82015250565b5f611593600c8361145b565b915061159e8261155f565b602082019050919050565b5f6020820190508181035f8301526115c081611587565b9050919050565b7f4e487b71000000000000000000000000000000000000000000000000000000005f52603260045260245ffd5b5f8151905061160281610eff565b92915050565b5f6020828403121561161d5761161c610ec7565b5b5f61162a848285016115f4565b91505092915050565b5f815190506116418161114b565b92915050565b5f6020828403121561165c5761165b610ec7565b5b5f61166984828501611633565b91505092915050565b5f81519050611680816113f3565b92915050565b5f6020828403121561169b5761169a610ec7565b5b5f6116a884828501611672565b91505092915050565b7f4e6f7420612063726561746f72000000000000000000000000000000000000005f82015250565b5f6116e5600d8361145b565b91506116f0826116b1565b602082019050919050565b5f6020820190508181035f830152611712816116d9565b9050919050565b7f4e487b71000000000000000000000000000000000000000000000000000000005f52604160045260245ffd5b5f819050815f5260205f209050919050565b5f6020601f8301049050919050565b5f82821b905092915050565b5f600883026117a27fffffffffffffffffffffffffffffffffffffffffffffffffffffffffffffffff82611767565b6117ac8683611767565b95508019841693508086168417925050509392505050565b5f6117de6117d96117d484610fed565b6111ed565b610fed565b9050919050565b5f819050919050565b6117f7836117c4565b61180b611803826117e5565b848454611773565b825550505050565b5f5f905090565b611822611813565b61182d8184846117ee565b505050565b5b81811015611850576118455f8261181a565b600181019050611833565b5050565b601f8211156118955761186681611746565b61186f84611758565b8101602085101561187e578190505b61189261188a85611758565b830182611832565b50505b505050565b5f82821c905092915050565b5f6118b55f198460080261189a565b1980831691505092915050565b5f6118cd83836118a6565b9150826002028217905092915050565b6118e682610f7d565b67ffffffffffffffff8111156118ff576118fe611719565b5b611909825461152f565b611914828285611854565b5f60209050601f831160018114611945575f8415611933578287015190505b61193d85826118c2565b8655506119a4565b601f19841661195386611746565b5f5b8281101561197a57848901518255600182019150602085019450602081019050611955565b868310156119975784890151611993601f8916826118a6565b8355505b6001600288020188555050505b505050505050565b7f4e487b71000000000000000000000000000000000000000000000000000000005f52601160045260245ffd5b5f6119e382610fed565b91506119ee83610fed565b9250828203905081811115611a0657611a056119ac565b5b92915050565b828183375f83830152505050565b5f611a25838561145b565b9350611a32838584611a0c565b611a3b83610fa5565b840190509392505050565b5f606082019050611a595f83018761138d565b8181036020830152611a6c818587611a1a565b9050611a7b604083018461138d565b9594505050505056fea26469706673582212206697df81eed9108bbec4825b398d450a23e92c9c3610d1973a41957bb260fa9064736f6c634300081e0033608060405234801561000f575f5ffd5b5060405161218b38038061218b8339818101604052810190610031919061025f565b335f73ffffffffffffffffffffffffffffffffffffffff168173ffffffffffffffffffffffffffffffffffffffff16036100a2575f6040517f1e4fbdf700000000000000000000000000000000000000000000000000000000815260040161009991906102ac565b60405180910390fd5b6100b18161014060201b60201c565b50600180819055508160025f6101000a81548173ffffffffffffffffffffffffffffffffffffffff021916908373ffffffffffffffffffffffffffffffffffffffff1602179055508060035f6101000a81548173ffffffffffffffffffffffffffffffffffffffff021916908373ffffffffffffffffffffffffffffffffffffffff16021790555050506102c5565b5f5f5f9054906101000a900473ffffffffffffffffffffffffffffffffffffffff169050815f5f6101000a81548173ffffffffffffffffffffffffffffffffffffffff021916908373ffffffffffffffffffffffffffffffffffffffff1602179055508173ffffffffffffffffffffffffffffffffffffffff168173ffffffffffffffffffffffffffffffffffffffff167f8be0079c531659141344cd1fd0a4f28419497f9722a3daafe3b4186f6b6457e060405160405180910390a35050565b5f5ffd5b5f73ffffffffffffffffffffffffffffffffffffffff82169050919050565b5f61022e82610205565b9050919050565b61023e81610224565b8114610248575f5ffd5b50565b5f8151905061025981610235565b92915050565b5f5f6040838503121561027557610274610201565b5b5f6102828582860161024b565b92505060206102938582860161024b565b9150509250929050565b6102a681610224565b82525050565b5f6020820190506102bf5f83018461029d565b92915050565b611eb9806102d25f395ff3fe6080604052600436106100eb575f3560e01c80637be6a3c511610089578063bd0024d411610058578063bd0024d4146102f6578063da29141d14610332578063f2fde38b1461035c578063fb5e76e614610384576100f2565b80637be6a3c5146102545780638da5cb5b1461027c578063aca51961146102a6578063b6b2196d146102ce576100f2565b80634e4a08e9116100c55780634e4a08e9146101975780635c7460d6146101d857806370dc424714610202578063715018a61461023e576100f2565b80631b4ce053146100f65780634686d463146101325780634c11b02b1461015a576100f2565b366100f257005b5f5ffd5b348015610101575f5ffd5b5061011c6004803603810190610117919061149a565b6103ae565b60405161012991906114dd565b60405180910390f35b34801561013d575f5ffd5b5061015860048036038101906101539190611520565b6103c3565b005b348015610165575f5ffd5b50610180600480360381019061017b919061149a565b610422565b60405161018e929190611578565b60405180910390f35b3480156101a2575f5ffd5b506101bd60048036038101906101b8919061159f565b61044e565b6040516101cf969594939291906115d9565b60405180910390f35b3480156101e3575f5ffd5b506101ec6104d0565b6040516101f99190611693565b60405180910390f35b34801561020d575f5ffd5b5061022860048036038101906102239190611520565b6104f5565b60405161023591906114dd565b60405180910390f35b348015610249575f5ffd5b506102526108e0565b005b34801561025f575f5ffd5b5061027a60048036038101906102759190611520565b6108f3565b005b348015610287575f5ffd5b50610290610d72565b60405161029d91906116ac565b60405180910390f35b3480156102b1575f5ffd5b506102cc60048036038101906102c791906116c5565b610d99565b005b3480156102d9575f5ffd5b506102f460048036038101906102ef919061159f565b610fbf565b005b348015610301575f5ffd5b5061031c6004803603810190610317919061149a565b6111a9565b60405161032991906114dd565b60405180910390f35b34801561033d575f5ffd5b506103466111ef565b60405161035391906114dd565b60405180910390f35b348015610367575f5ffd5b50610382600480360381019061037d919061149a565b6111f5565b005b34801561038f575f5ffd5b50610398611279565b6040516103a59190611723565b60405180910390f35b6005602052805f5260405f205f915090505481565b6103cb61129e565b8060055f8473ffffffffffffffffffffffffffffffffffffffff1673ffffffffffffffffffffffffffffffffffffffff1681526020019081526020015f205f8282546104179190611769565b925050819055505050565b6004602052805f5260405f205f91509050805f015490806001015f9054906101000a900460ff16905082565b6007602052805f5260405f205f91509050805f015f9054906101000a900473ffffffffffffffffffffffffffffffffffffffff1690806001015f9054906101000a900473ffffffffffffffffffffffffffffffffffffffff1690806002015490806003015490806004015f9054906101000a900460ff16908060050154905086565b60025f9054906101000a900473ffffffffffffffffffffffffffffffffffffffff1681565b5f6104fe611325565b5f60025f9054906101000a900473ffffffffffffffffffffffffffffffffffffffff1673ffffffffffffffffffffffffffffffffffffffff1663a6fa1542856040518263ffffffff1660e01b815260040161055991906116ac565b602060405180830381865afa158015610574573d5f5f3e3d5ffd5b505050506040513d601f19601f8201168201806040525081019061059891906117b0565b90505f73ffffffffffffffffffffffffffffffffffffffff168173ffffffffffffffffffffffffffffffffffffffff1603610608576040517f08c379a00000000000000000000000000000000000000000000000000000000081526004016105ff90611835565b60405180910390fd5b5f8173ffffffffffffffffffffffffffffffffffffffff166370a08231336040518263ffffffff1660e01b815260040161064291906116ac565b602060405180830381865afa15801561065d573d5f5f3e3d5ffd5b505050506040513d601f19601f820116820180604052508101906106819190611867565b9050838110156106c6576040517f08c379a00000000000000000000000000000000000000000000000000000000081526004016106bd906118dc565b60405180910390fd5b5f60065f8154809291906106d9906118fa565b9190505590506040518060c001604052803373ffffffffffffffffffffffffffffffffffffffff1681526020018773ffffffffffffffffffffffffffffffffffffffff1681526020018681526020015f81526020015f151581526020014281525060075f8381526020019081526020015f205f820151815f015f6101000a81548173ffffffffffffffffffffffffffffffffffffffff021916908373ffffffffffffffffffffffffffffffffffffffff1602179055506020820151816001015f6101000a81548173ffffffffffffffffffffffffffffffffffffffff021916908373ffffffffffffffffffffffffffffffffffffffff16021790555060408201518160020155606082015181600301556080820151816004015f6101000a81548160ff02191690831515021790555060a082015181600501559050508273ffffffffffffffffffffffffffffffffffffffff16639dc29fac33876040518363ffffffff1660e01b8152600401610850929190611941565b5f604051808303815f87803b158015610867575f5ffd5b505af1158015610879573d5f5f3e3d5ffd5b505050503373ffffffffffffffffffffffffffffffffffffffff16817f9cae2271da7ff35f48718c9666a2d53290965187db6fa564901bbb24c31f360f876040516108c491906114dd565b60405180910390a38093505050506108da61136b565b92915050565b6108e861129e565b6108f15f611374565b565b6108fb611325565b60025f9054906101000a900473ffffffffffffffffffffffffffffffffffffffff1673ffffffffffffffffffffffffffffffffffffffff1663c3c5a547336040518263ffffffff1660e01b815260040161095591906116ac565b602060405180830381865afa158015610970573d5f5f3e3d5ffd5b505050506040513d601f19601f820116820180604052508101906109949190611992565b6109d3576040517f08c379a00000000000000000000000000000000000000000000000000000000081526004016109ca90611a07565b60405180910390fd5b8060055f3373ffffffffffffffffffffffffffffffffffffffff1673ffffffffffffffffffffffffffffffffffffffff1681526020019081526020015f20541015610a53576040517f08c379a0000000000000000000000000000000000000000000000000000000008152600401610a4a90611a6f565b60405180910390fd5b5f60045f8473ffffffffffffffffffffffffffffffffffffffff1673ffffffffffffffffffffffffffffffffffffffff1681526020019081526020015f209050806001015f9054906101000a900460ff16610ae3576040517f08c379a0000000000000000000000000000000000000000000000000000000008152600401610ada90611ad7565b60405180910390fd5b5f815f015483610af39190611b22565b90505f8111610b37576040517f08c379a0000000000000000000000000000000000000000000000000000000008152600401610b2e90611bc2565b60405180910390fd5b8260055f3373ffffffffffffffffffffffffffffffffffffffff1673ffffffffffffffffffffffffffffffffffffffff1681526020019081526020015f205f828254610b839190611be0565b925050819055505f60025f9054906101000a900473ffffffffffffffffffffffffffffffffffffffff1673ffffffffffffffffffffffffffffffffffffffff1663a6fa1542866040518263ffffffff1660e01b8152600401610be591906116ac565b602060405180830381865afa158015610c00573d5f5f3e3d5ffd5b505050506040513d601f19601f82011682018060405250810190610c2491906117b0565b90505f73ffffffffffffffffffffffffffffffffffffffff168173ffffffffffffffffffffffffffffffffffffffff1603610c94576040517f08c379a0000000000000000000000000000000000000000000000000000000008152600401610c8b90611835565b60405180910390fd5b8073ffffffffffffffffffffffffffffffffffffffff166340c10f1933846040518363ffffffff1660e01b8152600401610ccf929190611941565b5f604051808303815f87803b158015610ce6575f5ffd5b505af1158015610cf8573d5f5f3e3d5ffd5b505050508473ffffffffffffffffffffffffffffffffffffffff163373ffffffffffffffffffffffffffffffffffffffff167f68501911013e80b9789b8ecd7afb2dc4af1a1dd05bd27dbe1fa6daf78208af8a8685604051610d5b929190611c13565b60405180910390a3505050610d6e61136b565b5050565b5f5f5f9054906101000a900473ffffffffffffffffffffffffffffffffffffffff16905090565b610da161129e565b610da9611325565b5f60075f8481526020019081526020015f209050806004015f9054906101000a900460ff1615610e0e576040517f08c379a0000000000000000000000000000000000000000000000000000000008152600401610e0590611c84565b60405180910390fd5b47821115610e51576040517f08c379a0000000000000000000000000000000000000000000000000000000008152600401610e4890611cec565b60405180910390fd5b8181600301819055506001816004015f6101000a81548160ff0219169083151502179055505f815f015f9054906101000a900473ffffffffffffffffffffffffffffffffffffffff1673ffffffffffffffffffffffffffffffffffffffff1683604051610ebd90611d37565b5f6040518083038185875af1925050503d805f8114610ef7576040519150601f19603f3d011682016040523d82523d5f602084013e610efc565b606091505b5050905080610f40576040517f08c379a0000000000000000000000000000000000000000000000000000000008152600401610f3790611d95565b60405180910390fd5b815f015f9054906101000a900473ffffffffffffffffffffffffffffffffffffffff1673ffffffffffffffffffffffffffffffffffffffff16847ffce065c7516328b55c09108762413c5069f9829d1c0a561cbc6a9b72af5e078c85604051610fa991906114dd565b60405180910390a35050610fbb61136b565b5050565b60025f9054906101000a900473ffffffffffffffffffffffffffffffffffffffff1673ffffffffffffffffffffffffffffffffffffffff1663efd46065336040518263ffffffff1660e01b815260040161101991906116ac565b602060405180830381865afa158015611034573d5f5f3e3d5ffd5b505050506040513d601f19601f820116820180604052508101906110589190611992565b611097576040517f08c379a000000000000000000000000000000000000000000000000000000000815260040161108e90611dfd565b60405180910390fd5b5f81116110d9576040517f08c379a00000000000000000000000000000000000000000000000000000000081526004016110d090611e65565b60405180910390fd5b60405180604001604052808281526020016001151581525060045f3373ffffffffffffffffffffffffffffffffffffffff1673ffffffffffffffffffffffffffffffffffffffff1681526020019081526020015f205f820151815f01556020820151816001015f6101000a81548160ff0219169083151502179055509050503373ffffffffffffffffffffffffffffffffffffffff167f7b057403397f07c94e3a8bd0c2f6508ac44bfdf965711529854d75e30a6647e28260405161119e91906114dd565b60405180910390a250565b5f60055f8373ffffffffffffffffffffffffffffffffffffffff1673ffffffffffffffffffffffffffffffffffffffff1681526020019081526020015f20549050919050565b60065481565b6111fd61129e565b5f73ffffffffffffffffffffffffffffffffffffffff168173ffffffffffffffffffffffffffffffffffffffff160361126d575f6040517f1e4fbdf700000000000000000000000000000000000000000000000000000000815260040161126491906116ac565b60405180910390fd5b61127681611374565b50565b60035f9054906101000a900473ffffffffffffffffffffffffffffffffffffffff1681565b6112a6611435565b73ffffffffffffffffffffffffffffffffffffffff166112c4610d72565b73ffffffffffffffffffffffffffffffffffffffff1614611323576112e7611435565b6040517f118cdaa700000000000000000000000000000000000000000000000000000000815260040161131a91906116ac565b60405180910390fd5b565b600260015403611361576040517f3ee5aeb500000000000000000000000000000000000000000000000000000000815260040160405180910390fd5b6002600181905550565b60018081905550565b5f5f5f9054906101000a900473ffffffffffffffffffffffffffffffffffffffff169050815f5f6101000a81548173ffffffffffffffffffffffffffffffffffffffff021916908373ffffffffffffffffffffffffffffffffffffffff1602179055508173ffffffffffffffffffffffffffffffffffffffff168173ffffffffffffffffffffffffffffffffffffffff167f8be0079c531659141344cd1fd0a4f28419497f9722a3daafe3b4186f6b6457e060405160405180910390a35050565b5f33905090565b5f5ffd5b5f73ffffffffffffffffffffffffffffffffffffffff82169050919050565b5f61146982611440565b9050919050565b6114798161145f565b8114611483575f5ffd5b50565b5f8135905061149481611470565b92915050565b5f602082840312156114af576114ae61143c565b5b5f6114bc84828501611486565b91505092915050565b5f819050919050565b6114d7816114c5565b82525050565b5f6020820190506114f05f8301846114ce565b92915050565b6114ff816114c5565b8114611509575f5ffd5b50565b5f8135905061151a816114f6565b92915050565b5f5f604083850312156115365761153561143c565b5b5f61154385828601611486565b92505060206115548582860161150c565b9150509250929050565b5f8115159050919050565b6115728161155e565b82525050565b5f60408201905061158b5f8301856114ce565b6115986020830184611569565b9392505050565b5f602082840312156115b4576115b361143c565b5b5f6115c18482850161150c565b91505092915050565b6115d38161145f565b82525050565b5f60c0820190506115ec5f8301896115ca565b6115f960208301886115ca565b61160660408301876114ce565b61161360608301866114ce565b6116206080830185611569565b61162d60a08301846114ce565b979650505050505050565b5f819050919050565b5f61165b61165661165184611440565b611638565b611440565b9050919050565b5f61166c82611641565b9050919050565b5f61167d82611662565b9050919050565b61168d81611673565b82525050565b5f6020820190506116a65f830184611684565b92915050565b5f6020820190506116bf5f8301846115ca565b92915050565b5f5f604083850312156116db576116da61143c565b5b5f6116e88582860161150c565b92505060206116f98582860161150c565b9150509250929050565b5f61170d82611662565b9050919050565b61171d81611703565b82525050565b5f6020820190506117365f830184611714565b92915050565b7f4e487b71000000000000000000000000000000000000000000000000000000005f52601160045260245ffd5b5f611773826114c5565b915061177e836114c5565b92508282019050808211156117965761179561173c565b5b92915050565b5f815190506117aa81611470565b92915050565b5f602082840312156117c5576117c461143c565b5b5f6117d28482850161179c565b91505092915050565b5f82825260208201905092915050565b7f43726561746f7220636f696e206e6f74207365740000000000000000000000005f82015250565b5f61181f6014836117db565b915061182a826117eb565b602082019050919050565b5f6020820190508181035f83015261184c81611813565b9050919050565b5f81519050611861816114f6565b92915050565b5f6020828403121561187c5761187b61143c565b5b5f61188984828501611853565b91505092915050565b7f496e73756666696369656e7420636f696e7300000000000000000000000000005f82015250565b5f6118c66012836117db565b91506118d182611892565b602082019050919050565b5f6020820190508181035f8301526118f3816118ba565b9050919050565b5f611904826114c5565b91507fffffffffffffffffffffffffffffffffffffffffffffffffffffffffffffffff82036119365761193561173c565b5b600182019050919050565b5f6040820190506119545f8301856115ca565b61196160208301846114ce565b9392505050565b6119718161155e565b811461197b575f5ffd5b50565b5f8151905061198c81611968565b92915050565b5f602082840312156119a7576119a661143c565b5b5f6119b48482850161197e565b91505092915050565b7f4e6f7420726567697374657265640000000000000000000000000000000000005f82015250565b5f6119f1600e836117db565b91506119fc826119bd565b602082019050919050565b5f6020820190508181035f830152611a1e816119e5565b9050919050565b7f496e73756666696369656e7420706f696e7473000000000000000000000000005f82015250565b5f611a596013836117db565b9150611a6482611a25565b602082019050919050565b5f6020820190508181035f830152611a8681611a4d565b9050919050565b7f526564656d7074696f6e206e6f742061637469766500000000000000000000005f82015250565b5f611ac16015836117db565b9150611acc82611a8d565b602082019050919050565b5f6020820190508181035f830152611aee81611ab5565b9050919050565b7f4e487b71000000000000000000000000000000000000000000000000000000005f52601260045260245ffd5b5f611b2c826114c5565b9150611b37836114c5565b925082611b4757611b46611af5565b5b828204905092915050565b7f496e73756666696369656e7420706f696e747320666f7220636f6e76657273695f8201527f6f6e000000000000000000000000000000000000000000000000000000000000602082015250565b5f611bac6022836117db565b9150611bb782611b52565b604082019050919050565b5f6020820190508181035f830152611bd981611ba0565b9050919050565b5f611bea826114c5565b9150611bf5836114c5565b9250828203905081811115611c0d57611c0c61173c565b5b92915050565b5f604082019050611c265f8301856114ce565b611c3360208301846114ce565b9392505050565b7f416c72656164792070726f6365737365640000000000000000000000000000005f82015250565b5f611c6e6011836117db565b9150611c7982611c3a565b602082019050919050565b5f6020820190508181035f830152611c9b81611c62565b9050919050565b7f496e73756666696369656e742062616c616e63650000000000000000000000005f82015250565b5f611cd66014836117db565b9150611ce182611ca2565b602082019050919050565b5f6020820190508181035f830152611d0381611cca565b9050919050565b5f81905092915050565b50565b5f611d225f83611d0a565b9150611d2d82611d14565b5f82019050919050565b5f611d4182611d17565b9150819050919050565b7f455448207472616e73666572206661696c6564000000000000000000000000005f82015250565b5f611d7f6013836117db565b9150611d8a82611d4b565b602082019050919050565b5f6020820190508181035f830152611dac81611d73565b9050919050565b7f4e6f7420612063726561746f72000000000000000000000000000000000000005f82015250565b5f611de7600d836117db565b9150611df282611db3565b602082019050919050565b5f6020820190508181035f830152611e1481611ddb565b9050919050565b7f496e76616c6964207261746500000000000000000000000000000000000000005f82015250565b5f611e4f600c836117db565b9150611e5a82611e1b565b602082019050919050565b5f6020820190508181035f830152611e7c81611e43565b905091905056fea26469706673582212201e8df572bc9d142c257ab0bb0f5c224cba0bb1c0184ae0a4f4e91e5eddf5080d64736f6c634300081e0033",
    "linkReferences": {}
  },
  "methodIdentifiers": {
    "accessControl()": "13007d55",
    "campaignManager()": "fb5e76e6",
    "getContracts()": "c3a2a93a",
    "owner()": "8da5cb5b",
    "redemptionManager()": "3278eb04",
    "renounceOwnership()": "715018a6",
    "transferAccessControlOwnership(address)": "ceddd62e",
    "transferAllOwnership(address)": "2e218728",
    "transferCampaignManagerOwnership(address)": "595d9274",
    "transferOwnership(address)": "f2fde38b",
    "transferRedemptionManagerOwnership(address)": "d5b2c536",
    "transferUserRegistryOwnership(address)": "2a4ccd32",
    "userRegistry()": "5c7460d6"
  },
  "id": 29
}