{"abi":[{"type":"constructor","inputs":[{"name":"_userRegistry","type":"address","internalType":"address"},{"name":"_campaignManager","type":"address","internalType":"address"}],"stateMutability":"nonpayable"},{"type":"receive","stateMutability":"payable"},{"type":"function","name":"awardPlatformPoints","inputs":[{"name":"_user","type":"address","internalType":"address"},{"name":"_points","type":"uint256","internalType":"uint256"}],"outputs":[],"stateMutability":"nonpayable"},{"type":"function","name":"campaignManager","inputs":[],"outputs":[{"name":"","type":"address","internalType":"contract CampaignManager"}],"stateMutability":"view"},{"type":"function","name":"cashoutCounter","inputs":[],"outputs":[{"name":"","type":"uint256","internalType":"uint256"}],"stateMutability":"view"},{"type":"function","name":"cashoutRequests","inputs":[{"name":"","type":"uint256","internalType":"uint256"}],"outputs":[{"name":"user","type":"address","internalType":"address"},{"name":"creator","type":"address","internalType":"address"},{"name":"coinAmount","type":"uint256","internalType":"uint256"},{"name":"ethValue","type":"uint256","internalType":"uint256"},{"name":"processed","type":"bool","internalType":"bool"},{"name":"timestamp","type":"uint256","internalType":"uint256"}],"stateMutability":"view"},{"type":"function","name":"convertPointsToCoins","inputs":[{"name":"_creator","type":"address","internalType":"address"},{"name":"_points","type":"uint256","internalType":"uint256"}],"outputs":[],"stateMutability":"nonpayable"},{"type":"function","name":"creatorRedemptionRates","inputs":[{"name":"","type":"address","internalType":"address"}],"outputs":[{"name":"pointsPerCoin","type":"uint256","internalType":"uint256"},{"name":"isActive","type":"bool","internalType":"bool"}],"stateMutability":"view"},{"type":"function","name":"getPlatformPoints","inputs":[{"name":"_user","type":"address","internalType":"address"}],"outputs":[{"name":"","type":"uint256","internalType":"uint256"}],"stateMutability":"view"},{"type":"function","name":"owner","inputs":[],"outputs":[{"name":"","type":"address","internalType":"address"}],"stateMutability":"view"},{"type":"function","name":"platformPoints","inputs":[{"name":"","type":"address","internalType":"address"}],"outputs":[{"name":"","type":"uint256","internalType":"uint256"}],"stateMutability":"view"},{"type":"function","name":"processCashout","inputs":[{"name":"_requestId","type":"uint256","internalType":"uint256"},{"name":"_ethValue","type":"uint256","internalType":"uint256"}],"outputs":[],"stateMutability":"nonpayable"},{"type":"function","name":"renounceOwnership","inputs":[],"outputs":[],"stateMutability":"nonpayable"},{"type":"function","name":"requestCashout","inputs":[{"name":"_creator","type":"address","internalType":"address"},{"name":"_coinAmount","type":"uint256","internalType":"uint256"}],"outputs":[{"name":"","type":"uint256","internalType":"uint256"}],"stateMutability":"nonpayable"},{"type":"function","name":"setRedemptionRate","inputs":[{"name":"_pointsPerCoin","type":"uint256","internalType":"uint256"}],"outputs":[],"stateMutability":"nonpayable"},{"type":"function","name":"transferOwnership","inputs":[{"name":"newOwner","type":"address","internalType":"address"}],"outputs":[],"stateMutability":"nonpayable"},{"type":"function","name":"userRegistry","inputs":[],"outputs":[{"name":"","type":"address","internalType":"contract UserRegistry"}],"stateMutability":"view"},{"type":"event","name":"CashoutProcessed","inputs":[{"name":"requestId","type":"uint256","indexed":true,"internalType":"uint256"},{"name":"user","type":"address","indexed":true,"internalType":"address"},{"name":"ethAmount","type":"uint256","indexed":false,"internalType":"uint256"}],"anonymous":false},{"type":"event","name":"CashoutRequested","inputs":[{"name":"requestId","type":"uint256","indexed":true,"internalType":"uint256"},{"name":"user","type":"address","indexed":true,"internalType":"address"},{"name":"coinAmount","type":"uint256","indexed":false,"internalType":"uint256"}],"anonymous":false},{"type":"event","name":"OwnershipTransferred","inputs":[{"name":"previousOwner","type":"address","indexed":true,"internalType":"address"},{"name":"newOwner","type":"address","indexed":true,"internalType":"address"}],"anonymous":false},{"type":"event","name":"PointsConverted","inputs":[{"name":"user","type":"address","indexed":true,"internalType":"address"},{"name":"creator","type":"address","indexed":true,"internalType":"address"},{"name":"points","type":"uint256","indexed":false,"internalType":"uint256"},{"name":"coins","type":"uint256","indexed":false,"internalType":"uint256"}],"anonymous":false},{"type":"event","name":"RedemptionRateSet","inputs":[{"name":"creator","type":"address","indexed":true,"internalType":"address"},{"name":"pointsPerCoin","type":"uint256","indexed":false,"internalType":"uint256"}],"anonymous":false},{"type":"error","name":"OwnableInvalidOwner","inputs":[{"name":"owner","type":"address","internalType":"address"}]},{"type":"error","name":"OwnableUnauthorizedAccount","inputs":[{"name":"account","type":"address","internalType":"address"}]},{"type":"error","name":"ReentrancyGuardReentrantCall","inputs":[]}],"bytecode":{"object":"0x608060405234801561000f575f5ffd5b5060405161218b38038061218b8339818101604052810190610031919061025f565b335f73ffffffffffffffffffffffffffffffffffffffff168173ffffffffffffffffffffffffffffffffffffffff16036100a2575f6040517f1e4fbdf700000000000000000000000000000000000000000000000000000000815260040161009991906102ac565b60405180910390fd5b6100b18161014060201b60201c565b50600180819055508160025f6101000a81548173ffffffffffffffffffffffffffffffffffffffff021916908373ffffffffffffffffffffffffffffffffffffffff1602179055508060035f6101000a81548173ffffffffffffffffffffffffffffffffffffffff021916908373ffffffffffffffffffffffffffffffffffffffff16021790555050506102c5565b5f5f5f9054906101000a900473ffffffffffffffffffffffffffffffffffffffff169050815f5f6101000a81548173ffffffffffffffffffffffffffffffffffffffff021916908373ffffffffffffffffffffffffffffffffffffffff1602179055508173ffffffffffffffffffffffffffffffffffffffff168173ffffffffffffffffffffffffffffffffffffffff167f8be0079c531659141344cd1fd0a4f28419497f9722a3daafe3b4186f6b6457e060405160405180910390a35050565b5f5ffd5b5f73ffffffffffffffffffffffffffffffffffffffff82169050919050565b5f61022e82610205565b9050919050565b61023e81610224565b8114610248575f5ffd5b50565b5f8151905061025981610235565b92915050565b5f5f6040838503121561027557610274610201565b5b5f6102828582860161024b565b92505060206102938582860161024b565b9150509250929050565b6102a681610224565b82525050565b5f6020820190506102bf5f83018461029d565b92915050565b611eb9806102d25f395ff3fe6080604052600436106100eb575f3560e01c80637be6a3c511610089578063bd0024d411610058578063bd0024d4146102f6578063da29141d14610332578063f2fde38b1461035c578063fb5e76e614610384576100f2565b80637be6a3c5146102545780638da5cb5b1461027c578063aca51961146102a6578063b6b2196d146102ce576100f2565b80634e4a08e9116100c55780634e4a08e9146101975780635c7460d6146101d857806370dc424714610202578063715018a61461023e576100f2565b80631b4ce053146100f65780634686d463146101325780634c11b02b1461015a576100f2565b366100f257005b5f5ffd5b348015610101575f5ffd5b5061011c6004803603810190610117919061149a565b6103ae565b60405161012991906114dd565b60405180910390f35b34801561013d575f5ffd5b5061015860048036038101906101539190611520565b6103c3565b005b348015610165575f5ffd5b50610180600480360381019061017b919061149a565b610422565b60405161018e929190611578565b60405180910390f35b3480156101a2575f5ffd5b506101bd60048036038101906101b8919061159f565b61044e565b6040516101cf969594939291906115d9565b60405180910390f35b3480156101e3575f5ffd5b506101ec6104d0565b6040516101f99190611693565b60405180910390f35b34801561020d575f5ffd5b5061022860048036038101906102239190611520565b6104f5565b60405161023591906114dd565b60405180910390f35b348015610249575f5ffd5b506102526108e0565b005b34801561025f575f5ffd5b5061027a60048036038101906102759190611520565b6108f3565b005b348015610287575f5ffd5b50610290610d72565b60405161029d91906116ac565b60405180910390f35b3480156102b1575f5ffd5b506102cc60048036038101906102c791906116c5565b610d99565b005b3480156102d9575f5ffd5b506102f460048036038101906102ef919061159f565b610fbf565b005b348015610301575f5ffd5b5061031c6004803603810190610317919061149a565b6111a9565b60405161032991906114dd565b60405180910390f35b34801561033d575f5ffd5b506103466111ef565b60405161035391906114dd565b60405180910390f35b348015610367575f5ffd5b50610382600480360381019061037d919061149a565b6111f5565b005b34801561038f575f5ffd5b50610398611279565b6040516103a59190611723565b60405180910390f35b6005602052805f5260405f205f915090505481565b6103cb61129e565b8060055f8473ffffffffffffffffffffffffffffffffffffffff1673ffffffffffffffffffffffffffffffffffffffff1681526020019081526020015f205f8282546104179190611769565b925050819055505050565b6004602052805f5260405f205f91509050805f015490806001015f9054906101000a900460ff16905082565b6007602052805f5260405f205f91509050805f015f9054906101000a900473ffffffffffffffffffffffffffffffffffffffff1690806001015f9054906101000a900473ffffffffffffffffffffffffffffffffffffffff1690806002015490806003015490806004015f9054906101000a900460ff16908060050154905086565b60025f9054906101000a900473ffffffffffffffffffffffffffffffffffffffff1681565b5f6104fe611325565b5f60025f9054906101000a900473ffffffffffffffffffffffffffffffffffffffff1673ffffffffffffffffffffffffffffffffffffffff1663a6fa1542856040518263ffffffff1660e01b815260040161055991906116ac565b602060405180830381865afa158015610574573d5f5f3e3d5ffd5b505050506040513d601f19601f8201168201806040525081019061059891906117b0565b90505f73ffffffffffffffffffffffffffffffffffffffff168173ffffffffffffffffffffffffffffffffffffffff1603610608576040517f08c379a00000000000000000000000000000000000000000000000000000000081526004016105ff90611835565b60405180910390fd5b5f8173ffffffffffffffffffffffffffffffffffffffff166370a08231336040518263ffffffff1660e01b815260040161064291906116ac565b602060405180830381865afa15801561065d573d5f5f3e3d5ffd5b505050506040513d601f19601f820116820180604052508101906106819190611867565b9050838110156106c6576040517f08c379a00000000000000000000000000000000000000000000000000000000081526004016106bd906118dc565b60405180910390fd5b5f60065f8154809291906106d9906118fa565b9190505590506040518060c001604052803373ffffffffffffffffffffffffffffffffffffffff1681526020018773ffffffffffffffffffffffffffffffffffffffff1681526020018681526020015f81526020015f151581526020014281525060075f8381526020019081526020015f205f820151815f015f6101000a81548173ffffffffffffffffffffffffffffffffffffffff021916908373ffffffffffffffffffffffffffffffffffffffff1602179055506020820151816001015f6101000a81548173ffffffffffffffffffffffffffffffffffffffff021916908373ffffffffffffffffffffffffffffffffffffffff16021790555060408201518160020155606082015181600301556080820151816004015f6101000a81548160ff02191690831515021790555060a082015181600501559050508273ffffffffffffffffffffffffffffffffffffffff16639dc29fac33876040518363ffffffff1660e01b8152600401610850929190611941565b5f604051808303815f87803b158015610867575f5ffd5b505af1158015610879573d5f5f3e3d5ffd5b505050503373ffffffffffffffffffffffffffffffffffffffff16817f9cae2271da7ff35f48718c9666a2d53290965187db6fa564901bbb24c31f360f876040516108c491906114dd565b60405180910390a38093505050506108da61136b565b92915050565b6108e861129e565b6108f15f611374565b565b6108fb611325565b60025f9054906101000a900473ffffffffffffffffffffffffffffffffffffffff1673ffffffffffffffffffffffffffffffffffffffff1663c3c5a547336040518263ffffffff1660e01b815260040161095591906116ac565b602060405180830381865afa158015610970573d5f5f3e3d5ffd5b505050506040513d601f19601f820116820180604052508101906109949190611992565b6109d3576040517f08c379a00000000000000000000000000000000000000000000000000000000081526004016109ca90611a07565b60405180910390fd5b8060055f3373ffffffffffffffffffffffffffffffffffffffff1673ffffffffffffffffffffffffffffffffffffffff1681526020019081526020015f20541015610a53576040517f08c379a0000000000000000000000000000000000000000000000000000000008152600401610a4a90611a6f565b60405180910390fd5b5f60045f8473ffffffffffffffffffffffffffffffffffffffff1673ffffffffffffffffffffffffffffffffffffffff1681526020019081526020015f209050806001015f9054906101000a900460ff16610ae3576040517f08c379a0000000000000000000000000000000000000000000000000000000008152600401610ada90611ad7565b60405180910390fd5b5f815f015483610af39190611b22565b90505f8111610b37576040517f08c379a0000000000000000000000000000000000000000000000000000000008152600401610b2e90611bc2565b60405180910390fd5b8260055f3373ffffffffffffffffffffffffffffffffffffffff1673ffffffffffffffffffffffffffffffffffffffff1681526020019081526020015f205f828254610b839190611be0565b925050819055505f60025f9054906101000a900473ffffffffffffffffffffffffffffffffffffffff1673ffffffffffffffffffffffffffffffffffffffff1663a6fa1542866040518263ffffffff1660e01b8152600401610be591906116ac565b602060405180830381865afa158015610c00573d5f5f3e3d5ffd5b505050506040513d601f19601f82011682018060405250810190610c2491906117b0565b90505f73ffffffffffffffffffffffffffffffffffffffff168173ffffffffffffffffffffffffffffffffffffffff1603610c94576040517f08c379a0000000000000000000000000000000000000000000000000000000008152600401610c8b90611835565b60405180910390fd5b8073ffffffffffffffffffffffffffffffffffffffff166340c10f1933846040518363ffffffff1660e01b8152600401610ccf929190611941565b5f604051808303815f87803b158015610ce6575f5ffd5b505af1158015610cf8573d5f5f3e3d5ffd5b505050508473ffffffffffffffffffffffffffffffffffffffff163373ffffffffffffffffffffffffffffffffffffffff167f68501911013e80b9789b8ecd7afb2dc4af1a1dd05bd27dbe1fa6daf78208af8a8685604051610d5b929190611c13565b60405180910390a3505050610d6e61136b565b5050565b5f5f5f9054906101000a900473ffffffffffffffffffffffffffffffffffffffff16905090565b610da161129e565b610da9611325565b5f60075f8481526020019081526020015f209050806004015f9054906101000a900460ff1615610e0e576040517f08c379a0000000000000000000000000000000000000000000000000000000008152600401610e0590611c84565b60405180910390fd5b47821115610e51576040517f08c379a0000000000000000000000000000000000000000000000000000000008152600401610e4890611cec565b60405180910390fd5b8181600301819055506001816004015f6101000a81548160ff0219169083151502179055505f815f015f9054906101000a900473ffffffffffffffffffffffffffffffffffffffff1673ffffffffffffffffffffffffffffffffffffffff1683604051610ebd90611d37565b5f6040518083038185875af1925050503d805f8114610ef7576040519150601f19603f3d011682016040523d82523d5f602084013e610efc565b606091505b5050905080610f40576040517f08c379a0000000000000000000000000000000000000000000000000000000008152600401610f3790611d95565b60405180910390fd5b815f015f9054906101000a900473ffffffffffffffffffffffffffffffffffffffff1673ffffffffffffffffffffffffffffffffffffffff16847ffce065c7516328b55c09108762413c5069f9829d1c0a561cbc6a9b72af5e078c85604051610fa991906114dd565b60405180910390a35050610fbb61136b565b5050565b60025f9054906101000a900473ffffffffffffffffffffffffffffffffffffffff1673ffffffffffffffffffffffffffffffffffffffff1663efd46065336040518263ffffffff1660e01b815260040161101991906116ac565b602060405180830381865afa158015611034573d5f5f3e3d5ffd5b505050506040513d601f19601f820116820180604052508101906110589190611992565b611097576040517f08c379a000000000000000000000000000000000000000000000000000000000815260040161108e90611dfd565b60405180910390fd5b5f81116110d9576040517f08c379a00000000000000000000000000000000000000000000000000000000081526004016110d090611e65565b60405180910390fd5b60405180604001604052808281526020016001151581525060045f3373ffffffffffffffffffffffffffffffffffffffff1673ffffffffffffffffffffffffffffffffffffffff1681526020019081526020015f205f820151815f01556020820151816001015f6101000a81548160ff0219169083151502179055509050503373ffffffffffffffffffffffffffffffffffffffff167f7b057403397f07c94e3a8bd0c2f6508ac44bfdf965711529854d75e30a6647e28260405161119e91906114dd565b60405180910390a250565b5f60055f8373ffffffffffffffffffffffffffffffffffffffff1673ffffffffffffffffffffffffffffffffffffffff1681526020019081526020015f20549050919050565b60065481565b6111fd61129e565b5f73ffffffffffffffffffffffffffffffffffffffff168173ffffffffffffffffffffffffffffffffffffffff160361126d575f6040517f1e4fbdf700000000000000000000000000000000000000000000000000000000815260040161126491906116ac565b60405180910390fd5b61127681611374565b50565b60035f9054906101000a900473ffffffffffffffffffffffffffffffffffffffff1681565b6112a6611435565b73ffffffffffffffffffffffffffffffffffffffff166112c4610d72565b73ffffffffffffffffffffffffffffffffffffffff1614611323576112e7611435565b6040517f118cdaa700000000000000000000000000000000000000000000000000000000815260040161131a91906116ac565b60405180910390fd5b565b600260015403611361576040517f3ee5aeb500000000000000000000000000000000000000000000000000000000815260040160405180910390fd5b6002600181905550565b60018081905550565b5f5f5f9054906101000a900473ffffffffffffffffffffffffffffffffffffffff169050815f5f6101000a81548173ffffffffffffffffffffffffffffffffffffffff021916908373ffffffffffffffffffffffffffffffffffffffff1602179055508173ffffffffffffffffffffffffffffffffffffffff168173ffffffffffffffffffffffffffffffffffffffff167f8be0079c531659141344cd1fd0a4f28419497f9722a3daafe3b4186f6b6457e060405160405180910390a35050565b5f33905090565b5f5ffd5b5f73ffffffffffffffffffffffffffffffffffffffff82169050919050565b5f61146982611440565b9050919050565b6114798161145f565b8114611483575f5ffd5b50565b5f8135905061149481611470565b92915050565b5f602082840312156114af576114ae61143c565b5b5f6114bc84828501611486565b91505092915050565b5f819050919050565b6114d7816114c5565b82525050565b5f6020820190506114f05f8301846114ce565b92915050565b6114ff816114c5565b8114611509575f5ffd5b50565b5f8135905061151a816114f6565b92915050565b5f5f604083850312156115365761153561143c565b5b5f61154385828601611486565b92505060206115548582860161150c565b9150509250929050565b5f8115159050919050565b6115728161155e565b82525050565b5f60408201905061158b5f8301856114ce565b6115986020830184611569565b9392505050565b5f602082840312156115b4576115b361143c565b5b5f6115c18482850161150c565b91505092915050565b6115d38161145f565b82525050565b5f60c0820190506115ec5f8301896115ca565b6115f960208301886115ca565b61160660408301876114ce565b61161360608301866114ce565b6116206080830185611569565b61162d60a08301846114ce565b979650505050505050565b5f819050919050565b5f61165b61165661165184611440565b611638565b611440565b9050919050565b5f61166c82611641565b9050919050565b5f61167d82611662565b9050919050565b61168d81611673565b82525050565b5f6020820190506116a65f830184611684565b92915050565b5f6020820190506116bf5f8301846115ca565b92915050565b5f5f604083850312156116db576116da61143c565b5b5f6116e88582860161150c565b92505060206116f98582860161150c565b9150509250929050565b5f61170d82611662565b9050919050565b61171d81611703565b82525050565b5f6020820190506117365f830184611714565b92915050565b7f4e487b71000000000000000000000000000000000000000000000000000000005f52601160045260245ffd5b5f611773826114c5565b915061177e836114c5565b92508282019050808211156117965761179561173c565b5b92915050565b5f815190506117aa81611470565b92915050565b5f602082840312156117c5576117c461143c565b5b5f6117d28482850161179c565b91505092915050565b5f82825260208201905092915050565b7f43726561746f7220636f696e206e6f74207365740000000000000000000000005f82015250565b5f61181f6014836117db565b915061182a826117eb565b602082019050919050565b5f6020820190508181035f83015261184c81611813565b9050919050565b5f81519050611861816114f6565b92915050565b5f6020828403121561187c5761187b61143c565b5b5f61188984828501611853565b91505092915050565b7f496e73756666696369656e7420636f696e7300000000000000000000000000005f82015250565b5f6118c66012836117db565b91506118d182611892565b602082019050919050565b5f6020820190508181035f8301526118f3816118ba565b9050919050565b5f611904826114c5565b91507fffffffffffffffffffffffffffffffffffffffffffffffffffffffffffffffff82036119365761193561173c565b5b600182019050919050565b5f6040820190506119545f8301856115ca565b61196160208301846114ce565b9392505050565b6119718161155e565b811461197b575f5ffd5b50565b5f8151905061198c81611968565b92915050565b5f602082840312156119a7576119a661143c565b5b5f6119b48482850161197e565b91505092915050565b7f4e6f7420726567697374657265640000000000000000000000000000000000005f82015250565b5f6119f1600e836117db565b91506119fc826119bd565b602082019050919050565b5f6020820190508181035f830152611a1e816119e5565b9050919050565b7f496e73756666696369656e7420706f696e7473000000000000000000000000005f82015250565b5f611a596013836117db565b9150611a6482611a25565b602082019050919050565b5f6020820190508181035f830152611a8681611a4d565b9050919050565b7f526564656d7074696f6e206e6f742061637469766500000000000000000000005f82015250565b5f611ac16015836117db565b9150611acc82611a8d565b602082019050919050565b5f6020820190508181035f830152611aee81611ab5565b9050919050565b7f4e487b71000000000000000000000000000000000000000000000000000000005f52601260045260245ffd5b5f611b2c826114c5565b9150611b37836114c5565b925082611b4757611b46611af5565b5b828204905092915050565b7f496e73756666696369656e7420706f696e747320666f7220636f6e76657273695f8201527f6f6e000000000000000000000000000000000000000000000000000000000000602082015250565b5f611bac6022836117db565b9150611bb782611b52565b604082019050919050565b5f6020820190508181035f830152611bd981611ba0565b9050919050565b5f611bea826114c5565b9150611bf5836114c5565b9250828203905081811115611c0d57611c0c61173c565b5b92915050565b5f604082019050611c265f8301856114ce565b611c3360208301846114ce565b9392505050565b7f416c72656164792070726f6365737365640000000000000000000000000000005f82015250565b5f611c6e6011836117db565b9150611c7982611c3a565b602082019050919050565b5f6020820190508181035f830152611c9b81611c62565b9050919050565b7f496e73756666696369656e742062616c616e63650000000000000000000000005f82015250565b5f611cd66014836117db565b9150611ce182611ca2565b602082019050919050565b5f6020820190508181035f830152611d0381611cca565b9050919050565b5f81905092915050565b50565b5f611d225f83611d0a565b9150611d2d82611d14565b5f82019050919050565b5f611d4182611d17565b9150819050919050565b7f455448207472616e73666572206661696c6564000000000000000000000000005f82015250565b5f611d7f6013836117db565b9150611d8a82611d4b565b602082019050919050565b5f6020820190508181035f830152611dac81611d73565b9050919050565b7f4e6f7420612063726561746f72000000000000000000000000000000000000005f82015250565b5f611de7600d836117db565b9150611df282611db3565b602082019050919050565b5f6020820190508181035f830152611e1481611ddb565b9050919050565b7f496e76616c6964207261746500000000000000000000000000000000000000005f82015250565b5f611e4f600c836117db565b9150611e5a82611e1b565b602082019050919050565b5f6020820190508181035f830152611e7c81611e43565b905091905056fea26469706673582212201e8df572bc9d142c257ab0bb0f5c224cba0bb1c0184ae0a4f4e91e5eddf5080d64736f6c634300081e0033","linkReferences":{}},"methodIdentifiers":{"awardPlatformPoints(address,uint256)":"4686d463","campaignManager()":"fb5e76e6","cashoutCounter()":"da29141d","cashoutRequests(uint256)":"4e4a08e9","convertPointsToCoins(address,uint256)":"7be6a3c5","creatorRedemptionRates(address)":"4c11b02b","getPlatformPoints(address)":"bd0024d4","owner()":"8da5cb5b","platformPoints(address)":"1b4ce053","processCashout(uint256,uint256)":"aca51961","renounceOwnership()":"715018a6","requestCashout(address,uint256)":"70dc4247","setRedemptionRate(uint256)":"b6b2196d","transferOwnership(address)":"f2fde38b","userRegistry()":"5c7460d6"},"id":29}