{"abi":[{"type":"constructor","inputs":[],"stateMutability":"nonpayable"},{"type":"function","name":"creatorCoinAddress","inputs":[{"name":"","type":"address","internalType":"address"}],"outputs":[{"name":"","type":"address","internalType":"address"}],"stateMutability":"view"},{"type":"function","name":"getUserRole","inputs":[{"name":"_user","type":"address","internalType":"address"}],"outputs":[{"name":"","type":"uint8","internalType":"enum UserRegistry.UserRole"}],"stateMutability":"view"},{"type":"function","name":"isCreator","inputs":[{"name":"_user","type":"address","internalType":"address"}],"outputs":[{"name":"","type":"bool","internalType":"bool"}],"stateMutability":"view"},{"type":"function","name":"isRegistered","inputs":[{"name":"_user","type":"address","internalType":"address"}],"outputs":[{"name":"","type":"bool","internalType":"bool"}],"stateMutability":"view"},{"type":"function","name":"linkCreatorCoin","inputs":[{"name":"_coinAddress","type":"address","internalType":"address"}],"outputs":[],"stateMutability":"nonpayable"},{"type":"function","name":"owner","inputs":[],"outputs":[{"name":"","type":"address","internalType":"address"}],"stateMutability":"view"},{"type":"function","name":"registerUser","inputs":[{"name":"_role","type":"uint8","internalType":"enum UserRegistry.UserRole"},{"name":"_profileURI","type":"string","internalType":"string"}],"outputs":[],"stateMutability":"nonpayable"},{"type":"function","name":"renounceOwnership","inputs":[],"outputs":[],"stateMutability":"nonpayable"},{"type":"function","name":"transferOwnership","inputs":[{"name":"newOwner","type":"address","internalType":"address"}],"outputs":[],"stateMutability":"nonpayable"},{"type":"function","name":"updateProfile","inputs":[{"name":"_profileURI","type":"string","internalType":"string"}],"outputs":[],"stateMutability":"nonpayable"},{"type":"function","name":"users","inputs":[{"name":"","type":"address","internalType":"address"}],"outputs":[{"name":"role","type":"uint8","internalType":"enum UserRegistry.UserRole"},{"name":"isRegistered","type":"bool","internalType":"bool"},{"name":"registeredAt","type":"uint256","internalType":"uint256"},{"name":"profileURI","type":"string","internalType":"string"}],"stateMutability":"view"},{"type":"event","name":"CreatorCoinLinked","inputs":[{"name":"creator","type":"address","indexed":true,"internalType":"address"},{"name":"coinAddress","type":"address","indexed":false,"internalType":"address"}],"anonymous":false},{"type":"event","name":"OwnershipTransferred","inputs":[{"name":"previousOwner","type":"address","indexed":true,"internalType":"address"},{"name":"newOwner","type":"address","indexed":true,"internalType":"address"}],"anonymous":false},{"type":"event","name":"ProfileUpdated","inputs":[{"name":"user","type":"address","indexed":true,"internalType":"address"},{"name":"profileURI","type":"string","indexed":false,"internalType":"string"}],"anonymous":false},{"type":"event","name":"UserRegistered","inputs":[{"name":"user","type":"address","indexed":true,"internalType":"address"},{"name":"role","type":"uint8","indexed":false,"internalType":"enum UserRegistry.UserRole"},{"name":"timestamp","type":"uint256","indexed":false,"internalType":"uint256"}],"anonymous":false},{"type":"event","name":"UserRoleUpdated","inputs":[{"name":"user","type":"address","indexed":true,"internalType":"address"},{"name":"oldRole","type":"uint8","indexed":false,"internalType":"enum UserRegistry.UserRole"},{"name":"newRole","type":"uint8","indexed":false,"internalType":"enum UserRegistry.UserRole"}],"anonymous":false},{"type":"error","name":"OwnableInvalidOwner","inputs":[{"name":"owner","type":"address","internalType":"address"}]},{"type":"error","name":"OwnableUnauthorizedAccount","inputs":[{"name":"account","type":"address","internalType":"address"}]}],"bytecode":{"object":"0x608060405234801561000f575f5ffd5b50335f73ffffffffffffffffffffffffffffffffffffffff168173ffffffffffffffffffffffffffffffffffffffff1603610081575f6040517f1e4fbdf70000000000000000000000000000000000000000000000000000000081526004016100789190610196565b60405180910390fd5b6100908161009660201b60201c565b506101af565b5f5f5f9054906101000a900473ffffffffffffffffffffffffffffffffffffffff169050815f5f6101000a81548173ffffffffffffffffffffffffffffffffffffffff021916908373ffffffffffffffffffffffffffffffffffffffff1602179055508173ffffffffffffffffffffffffffffffffffffffff168173ffffffffffffffffffffffffffffffffffffffff167f8be0079c531659141344cd1fd0a4f28419497f9722a3daafe3b4186f6b6457e060405160405180910390a35050565b5f73ffffffffffffffffffffffffffffffffffffffff82169050919050565b5f61018082610157565b9050919050565b61019081610176565b82525050565b5f6020820190506101a95f830184610187565b92915050565b611619806101bc5f395ff3fe608060405234801561000f575f5ffd5b50600436106100a6575f3560e01c8063a6fa15421161006f578063a6fa15421461013a578063a87430ba1461016a578063c3c5a5471461019d578063d29bcc5c146101cd578063efd46065146101e9578063f2fde38b14610219576100a6565b80629299e3146100aa57806327820851146100c6578063715018a6146100f657806383378e66146101005780638da5cb5b1461011c575b5f5ffd5b6100c460048036038101906100bf9190610c7f565b610235565b005b6100e060048036038101906100db9190610d24565b610365565b6040516100ed9190610dc2565b60405180910390f35b6100fe6103b9565b005b61011a60048036038101906101159190610d24565b6103cc565b005b6101246105b7565b6040516101319190610dea565b60405180910390f35b610154600480360381019061014f9190610d24565b6105de565b6040516101619190610dea565b60405180910390f35b610184600480360381019061017f9190610d24565b61060e565b6040516101949493929190610ea5565b60405180910390f35b6101b760048036038101906101b29190610d24565b6106d8565b6040516101c49190610eef565b60405180910390f35b6101e760048036038101906101e29190610f2b565b61072d565b005b61020360048036038101906101fe9190610d24565b6109c9565b6040516102109190610eef565b60405180910390f35b610233600480360381019061022e9190610d24565b610a43565b005b60015f3373ffffffffffffffffffffffffffffffffffffffff1673ffffffffffffffffffffffffffffffffffffffff1681526020019081526020015f205f0160019054906101000a900460ff166102c1576040517f08c379a00000000000000000000000000000000000000000000000000000000081526004016102b890610fd2565b60405180910390fd5b818160015f3373ffffffffffffffffffffffffffffffffffffffff1673ffffffffffffffffffffffffffffffffffffffff1681526020019081526020015f206002019182610310929190611224565b503373ffffffffffffffffffffffffffffffffffffffff167fdd635a4cd84864e37e4479dbfc2ec667acfa473c83c8422a8ac9d9d07599b01c838360405161035992919061132b565b60405180910390a25050565b5f60015f8373ffffffffffffffffffffffffffffffffffffffff1673ffffffffffffffffffffffffffffffffffffffff1681526020019081526020015f205f015f9054906101000a900460ff169050919050565b6103c1610ac7565b6103ca5f610b4e565b565b6002808111156103df576103de610d4f565b5b60015f3373ffffffffffffffffffffffffffffffffffffffff1673ffffffffffffffffffffffffffffffffffffffff1681526020019081526020015f205f015f9054906101000a900460ff16600281111561043d5761043c610d4f565b5b1461047d576040517f08c379a000000000000000000000000000000000000000000000000000000000815260040161047490611397565b60405180910390fd5b5f73ffffffffffffffffffffffffffffffffffffffff168173ffffffffffffffffffffffffffffffffffffffff16036104eb576040517f08c379a00000000000000000000000000000000000000000000000000000000081526004016104e2906113ff565b60405180910390fd5b8060025f3373ffffffffffffffffffffffffffffffffffffffff1673ffffffffffffffffffffffffffffffffffffffff1681526020019081526020015f205f6101000a81548173ffffffffffffffffffffffffffffffffffffffff021916908373ffffffffffffffffffffffffffffffffffffffff1602179055503373ffffffffffffffffffffffffffffffffffffffff167f9168d270106b8f2fe3d54fd51b4a2f882033ac8128e53813400fe169d3e31160826040516105ac9190610dea565b60405180910390a250565b5f5f5f9054906101000a900473ffffffffffffffffffffffffffffffffffffffff16905090565b6002602052805f5260405f205f915054906101000a900473ffffffffffffffffffffffffffffffffffffffff1681565b6001602052805f5260405f205f91509050805f015f9054906101000a900460ff1690805f0160019054906101000a900460ff169080600101549080600201805461065790611054565b80601f016020809104026020016040519081016040528092919081815260200182805461068390611054565b80156106ce5780601f106106a5576101008083540402835291602001916106ce565b820191905f5260205f20905b8154815290600101906020018083116106b157829003601f168201915b5050505050905084565b5f60015f8373ffffffffffffffffffffffffffffffffffffffff1673ffffffffffffffffffffffffffffffffffffffff1681526020019081526020015f205f0160019054906101000a900460ff169050919050565b60015f3373ffffffffffffffffffffffffffffffffffffffff1673ffffffffffffffffffffffffffffffffffffffff1681526020019081526020015f205f0160019054906101000a900460ff16156107ba576040517f08c379a00000000000000000000000000000000000000000000000000000000081526004016107b190611467565b60405180910390fd5b600160028111156107ce576107cd610d4f565b5b8360028111156107e1576107e0610d4f565b5b148061081057506002808111156107fb576107fa610d4f565b5b83600281111561080e5761080d610d4f565b5b145b61084f576040517f08c379a0000000000000000000000000000000000000000000000000000000008152600401610846906114cf565b60405180910390fd5b604051806080016040528084600281111561086d5761086c610d4f565b5b815260200160011515815260200142815260200183838080601f0160208091040260200160405190810160405280939291908181526020018383808284375f81840152601f19601f8201169050808301925050505050505081525060015f3373ffffffffffffffffffffffffffffffffffffffff1673ffffffffffffffffffffffffffffffffffffffff1681526020019081526020015f205f820151815f015f6101000a81548160ff0219169083600281111561092d5761092c610d4f565b5b02179055506020820151815f0160016101000a81548160ff02191690831515021790555060408201518160010155606082015181600201908161097091906114ed565b509050503373ffffffffffffffffffffffffffffffffffffffff167feea238307e4577ec1b8645d63505c2d57767cfc074bb5ab579a615525f07a25784426040516109bc9291906115bc565b60405180910390a2505050565b5f6002808111156109dd576109dc610d4f565b5b60015f8473ffffffffffffffffffffffffffffffffffffffff1673ffffffffffffffffffffffffffffffffffffffff1681526020019081526020015f205f015f9054906101000a900460ff166002811115610a3b57610a3a610d4f565b5b149050919050565b610a4b610ac7565b5f73ffffffffffffffffffffffffffffffffffffffff168173ffffffffffffffffffffffffffffffffffffffff1603610abb575f6040517f1e4fbdf7000000000000000000000000000000000000000000000000000000008152600401610ab29190610dea565b60405180910390fd5b610ac481610b4e565b50565b610acf610c0f565b73ffffffffffffffffffffffffffffffffffffffff16610aed6105b7565b73ffffffffffffffffffffffffffffffffffffffff1614610b4c57610b10610c0f565b6040517f118cdaa7000000000000000000000000000000000000000000000000000000008152600401610b439190610dea565b60405180910390fd5b565b5f5f5f9054906101000a900473ffffffffffffffffffffffffffffffffffffffff169050815f5f6101000a81548173ffffffffffffffffffffffffffffffffffffffff021916908373ffffffffffffffffffffffffffffffffffffffff1602179055508173ffffffffffffffffffffffffffffffffffffffff168173ffffffffffffffffffffffffffffffffffffffff167f8be0079c531659141344cd1fd0a4f28419497f9722a3daafe3b4186f6b6457e060405160405180910390a35050565b5f33905090565b5f5ffd5b5f5ffd5b5f5ffd5b5f5ffd5b5f5ffd5b5f5f83601f840112610c3f57610c3e610c1e565b5b8235905067ffffffffffffffff811115610c5c57610c5b610c22565b5b602083019150836001820283011115610c7857610c77610c26565b5b9250929050565b5f5f60208385031215610c9557610c94610c16565b5b5f83013567ffffffffffffffff811115610cb257610cb1610c1a565b5b610cbe85828601610c2a565b92509250509250929050565b5f73ffffffffffffffffffffffffffffffffffffffff82169050919050565b5f610cf382610cca565b9050919050565b610d0381610ce9565b8114610d0d575f5ffd5b50565b5f81359050610d1e81610cfa565b92915050565b5f60208284031215610d3957610d38610c16565b5b5f610d4684828501610d10565b91505092915050565b7f4e487b71000000000000000000000000000000000000000000000000000000005f52602160045260245ffd5b60038110610d8d57610d8c610d4f565b5b50565b5f819050610d9d82610d7c565b919050565b5f610dac82610d90565b9050919050565b610dbc81610da2565b82525050565b5f602082019050610dd55f830184610db3565b92915050565b610de481610ce9565b82525050565b5f602082019050610dfd5f830184610ddb565b92915050565b5f8115159050919050565b610e1781610e03565b82525050565b5f819050919050565b610e2f81610e1d565b82525050565b5f81519050919050565b5f82825260208201905092915050565b8281835e5f83830152505050565b5f601f19601f8301169050919050565b5f610e7782610e35565b610e818185610e3f565b9350610e91818560208601610e4f565b610e9a81610e5d565b840191505092915050565b5f608082019050610eb85f830187610db3565b610ec56020830186610e0e565b610ed26040830185610e26565b8181036060830152610ee48184610e6d565b905095945050505050565b5f602082019050610f025f830184610e0e565b92915050565b60038110610f14575f5ffd5b50565b5f81359050610f2581610f08565b92915050565b5f5f5f60408486031215610f4257610f41610c16565b5b5f610f4f86828701610f17565b935050602084013567ffffffffffffffff811115610f7057610f6f610c1a565b5b610f7c86828701610c2a565b92509250509250925092565b7f55736572206e6f742072656769737465726564000000000000000000000000005f82015250565b5f610fbc601383610e3f565b9150610fc782610f88565b602082019050919050565b5f6020820190508181035f830152610fe981610fb0565b9050919050565b5f82905092915050565b7f4e487b71000000000000000000000000000000000000000000000000000000005f52604160045260245ffd5b7f4e487b71000000000000000000000000000000000000000000000000000000005f52602260045260245ffd5b5f600282049050600182168061106b57607f821691505b60208210810361107e5761107d611027565b5b50919050565b5f819050815f5260205f209050919050565b5f6020601f8301049050919050565b5f82821b905092915050565b5f600883026110e07fffffffffffffffffffffffffffffffffffffffffffffffffffffffffffffffff826110a5565b6110ea86836110a5565b95508019841693508086168417925050509392505050565b5f819050919050565b5f61112561112061111b84610e1d565b611102565b610e1d565b9050919050565b5f819050919050565b61113e8361110b565b61115261114a8261112c565b8484546110b1565b825550505050565b5f5f905090565b61116961115a565b611174818484611135565b505050565b5b818110156111975761118c5f82611161565b60018101905061117a565b5050565b601f8211156111dc576111ad81611084565b6111b684611096565b810160208510156111c5578190505b6111d96111d185611096565b830182611179565b50505b505050565b5f82821c905092915050565b5f6111fc5f19846008026111e1565b1980831691505092915050565b5f61121483836111ed565b9150826002028217905092915050565b61122e8383610ff0565b67ffffffffffffffff81111561124757611246610ffa565b5b6112518254611054565b61125c82828561119b565b5f601f831160018114611289575f8415611277578287013590505b6112818582611209565b8655506112e8565b601f19841661129786611084565b5f5b828110156112be57848901358255600182019150602085019450602081019050611299565b868310156112db57848901356112d7601f8916826111ed565b8355505b6001600288020188555050505b50505050505050565b828183375f83830152505050565b5f61130a8385610e3f565b93506113178385846112f1565b61132083610e5d565b840190509392505050565b5f6020820190508181035f8301526113448184866112ff565b90509392505050565b7f4e6f7420612063726561746f72000000000000000000000000000000000000005f82015250565b5f611381600d83610e3f565b915061138c8261134d565b602082019050919050565b5f6020820190508181035f8301526113ae81611375565b9050919050565b7f496e76616c696420636f696e20616464726573730000000000000000000000005f82015250565b5f6113e9601483610e3f565b91506113f4826113b5565b602082019050919050565b5f6020820190508181035f830152611416816113dd565b9050919050565b7f416c7265616479207265676973746572656400000000000000000000000000005f82015250565b5f611451601283610e3f565b915061145c8261141d565b602082019050919050565b5f6020820190508181035f83015261147e81611445565b9050919050565b7f496e76616c696420726f6c6500000000000000000000000000000000000000005f82015250565b5f6114b9600c83610e3f565b91506114c482611485565b602082019050919050565b5f6020820190508181035f8301526114e6816114ad565b9050919050565b6114f682610e35565b67ffffffffffffffff81111561150f5761150e610ffa565b5b6115198254611054565b61152482828561119b565b5f60209050601f831160018114611555575f8415611543578287015190505b61154d8582611209565b8655506115b4565b601f19841661156386611084565b5f5b8281101561158a57848901518255600182019150602085019450602081019050611565565b868310156115a757848901516115a3601f8916826111ed565b8355505b6001600288020188555050505b505050505050565b5f6040820190506115cf5f830185610db3565b6115dc6020830184610e26565b939250505056fea26469706673582212204e0b312a1845ea86844b81196fafea31283caf67650bf1fc401a8034b237415564736f6c634300081e0033","linkReferences":{}},"methodIdentifiers":{"creatorCoinAddress(address)":"a6fa1542","getUserRole(address)":"27820851","isCreator(address)":"efd46065","isRegistered(address)":"c3c5a547","linkCreatorCoin(address)":"83378e66","owner()":"8da5cb5b","registerUser(uint8,string)":"d29bcc5c","renounceOwnership()":"715018a6","transferOwnership(address)":"f2fde38b","updateProfile(string)":"009299e3","users(address)":"a87430ba"},"id":29}